:020000040800F2
:100000000000022009300008791700087B1700085B
:100010007D1700087F170008811700080000000006
:10002000000000000000000000000000831700082E
:1000300085170008000000008717000889170008CE
:10004000593000085930000859300008593000086C
:10005000593000085930000859300008593000085C
:10006000593000085930000859300008593000084C
:10007000593000085930000859300008593000083C
:10008000593000085930000859300008593000082C
:10009000593000085930000859300008593000081C
:1000A000593000085930000859300008593000080C
:1000B00059300008593000085930000859300008FC
:1000C00059300008593000085930000859300008EC
:1000D00059300008593000085930000859300008DC
:1000E00059300008593000085930000859300008CC
:1000F00059300008593000085930000859300008BC
:1001000059300008593000085930000859300008AB
:10011000593000085930000859300008593000089B
:10012000593000085930000859300008593000088B
:10013000593000085930000859300008593000087B
:10014000593000085930000859300008593000086B
:10015000593000085930000859300008593000085B
:10016000593000085930000859300008593000084B
:1001700059300008593000085930000800000000CC
:08018000593000085930000855
:1001C0000348044B834202D0034B03B118477047E6
:1001D0007000002070000020000000000548064963
:1001E000091A891001EBD171491002D0034B03B1F8
:1001F00018477047700000207000002000000000C9
:1002000010B5064C237843B9FFF7DAFF044B13B15E
:100210000448AFF300800123237010BD700000205C
:10022000000000005C30000808B5044B1BB1044915
:100230000448AFF30080BDE80840CFE700000000AD
:10024000740000205C30000870B50D4E0D4D761B1B
:10025000B61006D00024013455F8043B9847A64256
:10026000F9D1094E094D761B02F0F8FEB61006D002
:100270000024013455F8043B9847A642F9D170BDDB
:10028000D8300008D8300008DC300008D83000082A
:10029000F0B4860746D0541E002A3CD0CAB20346AA
:1002A00002E014F1FF3436D303F8012B9D07F8D197
:1002B000032C29D9CDB245EA05250F2C45EA054581
:1002C00033D9A4F11006360903F1200707EB06170E
:1002D00003F1100242E9045542E902551032BA42D4
:1002E000F8D1721C14F00C0F03EB021204F00F068D
:1002F00013D0331F23F003030433134442F8045B89
:100300009342FBD106F003042CB1C9B21C4403F89C
:10031000011B9C42FBD1F0BC704734461346002CB5
:10032000F3D1F8E714460346C2E71A462646E0E74B
:100330000CB470B59CB020AC0B4E54F8042B029159
:10034000234606916FF0004502A901940795CDE977
:10035000045600F07FF9029B00221A701CB0BDE821
:10036000704002B0704700BF0802FFFF0EB430B506
:100370009CB01FAB0C4C0D4D53F8042B0193014660
:1003800002910691206802A96FF000440794CDE91C
:10039000044500F05FF9029B00221A701CB0BDE812
:1003A000304003B0704700BF000000200802FFFF8C
:1003B000000000000000000000000000000000003D
:1003C00090F800F06DE9024520F007016FF0000C95
:1003D00010F0070491F820F040F049804FF000043D
:1003E0006FF00700D1E9002391F840F000F1080018
:1003F00082FA4CF2A4FA8CF283FA4CF3A2FA8CF350
:100400004BBBD1E9022382FA4CF200F10800A4FAB6
:100410008CF283FA4CF3A2FA8CF3E3B9D1E904230A
:1004200082FA4CF200F10800A4FA8CF283FA4CF341
:10043000A2FA8CF37BB9D1E9062301F1200182FAFB
:100440004CF200F10800A4FA8CF283FA4CF3A2FA01
:100450008CF3002BC6D0002A04BF04301A4612BA0F
:10046000B2FA82F2FDE8024500EBD2007047D1E912
:10047000002304F00305C4F100004FEAC50514F0A1
:10048000040F91F840F00CFA05F562EA05021CBF72
:1004900063EA050362464FF00004A9E72DE9F0473F
:1004A0008E681D46AE420C460B68174636D880460D
:1004B000888910F4906F0ED1354618462A46394681
:1004C00000F0D0FCA2682368961B2B44A660236032
:1004D0000020BDE8F087D1E9041606EB4606A3EB41
:1004E000010906EBD6766B1C76104B44B3423246BC
:1004F00084BF1E463246430512D51146404600F0E1
:100500006FFD824600B34A46216900F011FCA389C1
:1005100023F4906343F08003A38106E02E46CCE7EA
:10052000404600F0C1FD824650B1A6EB09020AEB3D
:1005300009036661C4F810A02360A2602E46BCE7E0
:100540002169404600F0F6FC0C23C8F80030A3896E
:1005500043F04003A3814FF0FF30BAE72DE9F04F9D
:10056000936883B09046002B6DD017688D688246E3
:100570000C460868083743E0A38913F4906F2ED027
:10058000D4E9041505EB4505A0EB010B05EBD5758A
:100590000BEB06006D100130A8422A4684BF0546C9
:1005A0002A465B0536D51146504600F019FD002855
:1005B0003AD05A462169019000F0BAFBA289019B0A
:1005C00022F4906242F08002A281A5EB0B0203EBC1
:1005D0000B00656123612060A2603546B3465A4630
:1005E000494600F03FFCD8F80830A2682068551B47
:1005F00058449E1BA5602060C8F808601EB30837E9
:1006000057E90296AB46002EF9D0AE42B4D2354639
:10061000B346E4E7504600F047FD03460028D4D136
:100620002169504600F086FC0C23CAF80030A389EB
:10063000002243F040034FF0FF30A381C8E90122BC
:1006400003B0BDE8F08F0020C8F8040003B0BDE897
:10065000F08F00BF2DE9F04F90468A899FB01406B5
:100660008B46029003D50A69002A00F00B8105939E
:1006700030238DF8323098F800308E4E0021202241
:100680000B918DF831200127002B00F08480252B61
:1006900000F0F680454603E0252B00F086802546D5
:1006A0006B786C1C002BF7D1B4EB080A73D0424670
:1006B000534659460298FFF7F1FE01306BD00B9B71
:1006C0006A7853440B93002A65D000234FF0FF3221
:1006D00001340693CDE908338DF85B301C93079203
:1006E00005E0069A07FA03F313432C4606932546C2
:1006F000052215F8011B304600F0CAFAAA46831BF2
:100700000028EED1069BD90644BF20228DF85B203D
:1007100021781A0744BF2B228DF85B202A2948D163
:10072000059A11680432002905927EDB09916178EF
:10073000A51C2E2956D0604C0322204600F0A8FAB2
:10074000002868D0001B069B402404FA00F00343F5
:10075000069305F10108297858488DF830100622D3
:1007600000F096FA002866D0554B002B56D005AB0A
:1007700000935A46534B029806A9AFF30080814676
:10078000B9F1FF3F07D00B9B4B440B9398F8003017
:10079000002B7FF47CAFBBF80C305B0654BF0B988A
:1007A0004FF0FF301FB0BDE8F08FB4EB080A8CD0DB
:1007B0007DE7A1F13002092A88BFA246B9D8099B7A
:1007C00001E02C460135297803EB830302EB430358
:1007D000A1F13002092AAA46F3D92E2904F1020513
:1007E0000993A8D19AF801102A292ED1059B9AF8CD
:1007F00002101A6807920433002A05930AF10305D0
:100800000AF1020337DB2C4C032220469A4600F003
:100810003FFA002896D1A84655469CE7059B07332A
:1008200023F0070308330593ADE7494243F0020381
:10083000099106937BE705AB00935A46214B02983A
:1008400006A900F0D7F881469AE7A1F1300200230B
:10085000092A079301D923E05546697803EB8303FE
:1008600002EB4303A1F13002092A05F1010AF3D991
:10087000023507935FE74FF0FF329A4607925AE737
:10088000444622E74021039300F0AAFB039BCBF8E8
:100890000000CBF8100030B14022CBF81420E6E67F
:1008A000AA46013547E7029A0C2313604FF0FF3048
:1008B00078E700BF943000089C300008A0300008A2
:1008C000000000009D0400082DE9F0470C46914609
:1008D0000A698968DDF820808A42B8BF0A46C9F8EB
:1008E000002094F8431006461F4611B10132C9F8A2
:1008F0000020236899065CD5D9F800200232C9F897
:100900000020236813F0060F19461DD1E1688A1AEA
:10091000002AD8BF194617DD04F1190A002505E0A1
:10092000E368D9F800209B1AAB420CDD0123524644
:1009300039463046C047013005F10105F0D14FF08E
:10094000FF30BDE8F087216894F84330003318BFCA
:1009500001238A060AD5E1185A1C302081F8430089
:10096000224494F8451082F84310023304F1430204
:1009700039463046C0470130E1D02368A26821697A
:1009800003F00603042B1DD08A4226DD4FF0000938
:10099000521A91441A34002501E04D451DDA012315
:1009A000224639463046C047013005F10105F4D1F1
:1009B000C5E713F0060F13D094F84330003318BF87
:1009C0000123D3E7D9F80000E3688A42A3EB0003D0
:1009D00023EAE379DCDC002BDCDC0020BDE8F087D7
:1009E000E168D9F800208A1A002AD8BF194693DC9A
:1009F000AAE700BF2DE9F0430C46097E85B06E29B9
:100A0000064617460C98984604F1430E6DD039D926
:100A1000732900F0F68044D9752900F00481782903
:100A200040F0118178232268DFF858C284F84530FD
:100A30000168150651F8043B016040F1A180D1071F
:100A400044BF42F020022260002B00F0938010226D
:100A5000002184F843106068A0600028C0F2C880BC
:100A6000216821F004012160002B40F0A3800028C0
:100A700040F0C0807546082A00F0AC80AEEB05035C
:100A8000236141E0632900F0E5801AD8002938D0BD
:100A9000582940F0D88084F845102268DFF8E8C172
:100AA000C6E76F2900F0BF80702940F0CC80226833
:100AB000DFF8D0C142F020027823226084F845306C
:100AC000B6E7642902D0692940F0BD802268036836
:100AD000110603F1040557D5196805600B46002976
:100AE00059DBDFF8A4C10A22B5E70368226861690F
:100AF0001D1D056015061B6802D4500600F1BD805F
:100B00001960002375462361CDF800803B4603AA97
:100B100021463046FFF7D8FE013020D02A4623690F
:100B200039463046C047013019D022680398E3683F
:100B3000920719D51A1A002A16DD04F119090025A1
:100B400004E0E36803981A1AAA420DDD01234A461D
:100B500039463046C047013005F10105F1D14FF06B
:100B6000FF3005B0BDE8F0839842B8BF184605B025
:100B7000BDE8F083226822F020022260102267E79D
:100B8000500648BF9BB25AE75106A5D5B3F90030CD
:100B900005601946A3E76168A1602D200029C3F113
:100BA000000384F8430002DB22F004022260DFF835
:100BB000D8C00A22754600E00B46B3FBF2F102FBF7
:100BC000113093421CF8000005F8010DF4D2082AF8
:100BD0007FF454AF2368DB077FF550AF6268236969
:100BE0009A423FF74BAF302305F8013C013D45E702
:100BF000002BDFD19CF8003084F8423004F142052C
:100C000039E703686268191D01601D6800212846E4
:100C100000F03EF8002832D0401B606020610023C5
:100C200084F8433070E72268036812F0800F03F104
:100C300004051AD01B6805606F290CBF08220A2220
:100C4000DFF844C004E7012384F84210236104F173
:100C50004205E4E703681A68191D0123016004F1E5
:100C6000420584F842202361D9E712F0400F0DBFFE
:100C70001B6805601B880560DEE7198041E7606836
:100C8000CCE700BFBC300008A8300008000000001E
:100C900001F0FF01102A2BDB10F0070F08D010F82D
:100CA000013B013A8B422DD010F0070F42B3F6D131
:100CB000F0B441EA012141EA014122F007047FF04A
:100CC00000070023F0E80256083C85EA010586EAA1
:100CD000010685FA47F5A3FA87F586FA47F6A5FADD
:100CE00087F68EB9EED1F0BC01F0FF0102F00702E9
:100CF00032B110F8013B013A83EA010313B1F8D194
:100D00000020704701387047002D06BF3546033874
:100D1000073815F0010F07D1013015F4807F02BFAD
:100D2000013015F4C03F0130F0BC0138704700BFFE
:100D3000844641EA000313F003036DD1403A41D3E6
:100D400051F8043B40F8043B51F8043B40F8043BA5
:100D500051F8043B40F8043B51F8043B40F8043B95
:100D600051F8043B40F8043B51F8043B40F8043B85
:100D700051F8043B40F8043B51F8043B40F8043B75
:100D800051F8043B40F8043B51F8043B40F8043B65
:100D900051F8043B40F8043B51F8043B40F8043B55
:100DA00051F8043B40F8043B51F8043B40F8043B45
:100DB00051F8043B40F8043B51F8043B40F8043B35
:100DC000403ABDD2303211D351F8043B40F8043BD5
:100DD00051F8043B40F8043B51F8043B40F8043B15
:100DE00051F8043B40F8043B103AEDD20C3205D3E5
:100DF00051F8043B40F8043B043AF9D2043208D0DD
:100E0000D2071CBF11F8013B00F8013B01D30B884E
:100E100003806046704700BF082A13D38B078DD02C
:100E200010F003038AD0C3F10403D21ADB071CBFFE
:100E300011F8013B00F8013B80D331F8023B20F868
:100E4000023B7BE7043AD9D3013A11F8013B00F8A1
:100E5000013BF9D20B7803704B7843708B78837029
:100E6000604670478842F0B40DD98B1883420AD986
:100E7000841832B1224613F8014D02F8014D99420F
:100E8000F9D1F0BC70470F2A0ED80346541E002A31
:100E9000F7D001340C44013B11F8012B03F8012F6A
:100EA000A142F9D1F0BC704740EA01039B073BD156
:100EB000A2F110073F0901F1200606EB071601F128
:100EC000100300F1100453F8105C44F8105C53F860
:100ED0000C5C44F80C5C53F8085C44F8085C53F86C
:100EE000045C44F8045C1033B34204F11004EAD10A
:100EF0007B1C1B0112F00C0F194402F00F05034478
:100F000015D0043DAD0803EB850C1C1F0E4656F8AA
:100F1000047B44F8047F6445F9D10135AD002B44CE
:100F2000294402F00302B1E7541E0346B1E72A4602
:100F3000ACE700BF00293CD038B551F8043C0C1F89
:100F4000002BB8BFE418054600F0E6F8234B1A68FA
:100F50002AB1A2420DD921686018824223D0626072
:100F600028461C60BDE8384000F0D8B8A34203D83A
:100F70001A465368002BF9D111685018A04219D0B5
:100F800024D821686018834206D0636054602846E4
:100F9000BDE8384000F0C2B8D3E900030144636003
:100FA00021605460F3E7D2E90002014462602160ED
:100FB000D6E7704720680144501883421160E6D19B
:100FC000D3E90003014453601160E0E70C232B6078
:100FD0002846BDE8384000F0A1B800BF8C000020D2
:100FE000F8B5CD1C25F0030508350C2D38BF0C25B0
:100FF000002D064633DBA94231D82A4F00F08CF889
:101000003A6852B113685B1B04D43FE023685B1B52
:1010100029D522465468002CF8D1796800293BD0A4
:101020002946304600F066F8431C28D0C41C24F042
:101030000304A04205D0211A304600F05BF80130CD
:101040001DD02560304600F069F804F10B0020F057
:101050000700231DC21A01D01B1AA350F8BD0C2291
:1010600032600020F8BD0B2B05D8A242636811D076
:101070005360E7E7144623601C442560E2E70C2335
:101080003046336000F04AF80020F8BD0B2BF1D851
:10109000536814463B60D5E7304600F02BF8786083
:1010A000BEE700BF8C00002009B3F8B51446CAB1F2
:1010B00006460D4600F034F8A04202D32F463846CB
:1010C000F8BD21463046FFF78BFF07460028F6D0D3
:1010D00022462946FFF72CFE30462946FFF72AFF15
:1010E0003846F8BD2746FFF725FF3846F8BD1146BC
:1010F000FFF776BF38B5074C002305460846236046
:1011000000F016F8431C00D038BD2368002BFBD03C
:101110002B6038BD24030020704700BF704700BF1C
:1011200051F8043C181F002BBCBF0B58C018704767
:10113000044A05491368002B08BF0B461844106089
:1011400018467047940000202803002053B94AB97C
:10115000002908BF00281CBF4FF0FF314FF0FF30BF
:1011600000F074B9ADF1080C6DE904CE00F006F89A
:10117000DDF804E0DDE9022304B070472DE9F04713
:10118000089E04468846002B40F085808A4215461A
:1011900048D9B2FA82F24AB1C2F1200701FA02F349
:1011A00020FA07F7954047EA030894404FEA154EA6
:1011B000230CB8FBFEF71FFA85FC0EFB178843EAE9
:1011C000084307FB0CF1994209D9EB1807F1FF30EE
:1011D00080F0E380994240F2E080023F2B445B1AAA
:1011E000A4B2B3FBFEF00EFB103344EA034400FB51
:1011F0000CFCA44509D92C1900F1FF3380F0CB80F9
:10120000A44540F2C88002382C4440EA0740A4EBD1
:101210000C0400271EB1D4400023C6E90043394620
:10122000BDE8F087002A53D0B2FA82F2002A40F0DB
:10123000B680491B4FEA154E1FFA85F80127B1FB0E
:10124000FEFC230C0EFB1C1143EA014308FB0CF1CE
:10125000994207D9EB180CF1FF3002D2994200F203
:10126000EC808446591AA3B2B1FBFEF00EFB1014B9
:1012700043EA044408FB00F8A04507D92C1900F103
:10128000FF3302D2A04500F2DC801846A4EB08042C
:1012900040EA0C40BEE78B4208D9002E78D00027E8
:1012A000C6E9000138463946BDE8F087B3FA83F74E
:1012B0007FB98B4202D3824200F2BD80841A61EB77
:1012C000030301209846002EA9D0C6E90048A6E7EE
:1012D000FFDEC7F12005BB4022FA05FC4CEA030CF7
:1012E00001FA07F420FA05F821FA05F34FEA1C4E3B
:1012F00048EA0404B3FBFEF9210C0EFB19331FFA74
:101300008CF841EA034309FB08FA9A4502FA07F20E
:1013100000FA07F10BD91CEB030309F1FF3080F051
:1013200088809A4540F28580A9F102096344A3EBC5
:101330000A03A4B2B3FBFEF00EFB103344EA0344ED
:1013400000FB08F8A04508D91CEB040400F1FF33AA
:101350006BD2A04569D90238644440EA0940A4EB45
:101360000804A0FB02894C45C6464B4654D351D0D5
:10137000002E69D0B1EB0E0264EB030404FA05F50C
:1013800022FA07F3FC401D43C6E90054002746E754
:101390003746304643E7184637E707461FE7C2F1AE
:1013A000200320FA03F7954001FA02F021FA03F333
:1013B0004FEA154E3843010CB3FBFEF71FFA85F8D0
:1013C0000EFB173341EA034107FB08F38B4204FA93
:1013D00002F407D9691807F1FF3C28D28B4226D9BD
:1013E000023F2944CB1A81B2B3FBFEF00EFB10334F
:1013F00041EA034100FB08F38B4207D9691800F169
:10140000FF3C10D28B420ED902382944C91A40EA57
:10141000074714E74145ABD2B8EB020E69EB0C026B
:1014200001381346A4E76046F0E7184695E767469B
:10143000D8E781467BE7384645E7ACF1020C2B4400
:1014400010E702382C4421E73746E8E6704700BF32
:1014500030B58BB000240594069407940894099441
:101460000094224B1A6B42F080021A631A6B02F04E
:1014700080020092009A01941A6B42F004021A63EF
:101480001A6B02F004020192019A02941A6B42F064
:1014900001021A631A6B02F001020292029A03948B
:1014A0001A6B42F002021A631A6B02F002020392F4
:1014B000039A04941A6B42F008021A631B6B03F040
:1014C00008030493049B0A4D22468021284600F01D
:1014D000CBFE80230593012306930794089405A966
:1014E000284600F0D7FD0BB030BD00BF00380240E9
:1014F0000000024072B6FEE700B585B000230093FD
:101500000193029303931448144A02604FF480320B
:101510004260836003610122027680F82030C3625A
:101520000F498162C360C26180F83030426101F0CE
:1015300011F860B9012300930193002302936946D7
:10154000054801F035F920B905B05DF804FBFFF757
:10155000D1FFFFF7CFFF00BF8C010020002001402A
:101560000100000F08B50D480D4B036003234360D5
:1015700000238360C3604FF4202202614FF4801285
:101580004261037643768376C3760377437701F02F
:10159000D7F900B908BDFFF7ADFF00BFF802002082
:1015A0000064004008B50A480A4B03604FF4E13379
:1015B000436000238360C36003610C224261836146
:1015C000C36101F084FC00B908BDFFF793FF00BFC1
:1015D000F40000200048004000B595B03022002102
:1015E00008A8FEF755FE0023039304930593069382
:1015F00007930193214A116C41F080511164126CE0
:1016000002F080520192019A02931D4B1A6842F433
:1016100080421A601B6803F480430293029B0923F3
:1016200008934FF48033099301230D9302230E9303
:101630004FF480020F9204221092A822119212936A
:101640000723139308A800F0E9F998B90F2303932F
:1016500002230493002305934FF4A05306934FF401
:1016600080530793052103A800F03EFC20B915B074
:101670005DF804FBFFF73EFFFFF73CFF0038024038
:101680000070004030B5A5B000F080FEFFF7A4FF69
:10169000FFF7DEFEFFF730FFFFF764FFFFF782FF83
:1016A0000123229312221F9200241E9448F6C002A6
:1016B0001A921B941C921D9420942193142323931B
:1016C000274D1AA9284601F0E1F940F2AE531493D0
:1016D00015931794169408231893284601F06CFA72
:1016E00000F07AFE04E0FFF705FF322000F07AFEFA
:1016F0001C4C204600F05AFF4FF0FF31204600F00E
:10170000F7FF204601F050F882B2174BA3FB0213FB
:101710005B098DF84830642101FB13238DF84930B3
:10172000124901A8FEF722FE01A8FEF749FE4FF07C
:10173000FF3382B201A90E4801F0F8FB80210D4869
:1017400000F098FD11AB12AA14A9054801F062FA45
:101750000028C8D1024801F0D3FA0328FAD1C4E71F
:10176000F80200208C0100201F85EB517430000826
:10177000F400002000000240FEE7FEE7FEE7FEE77F
:10178000FEE770477047704708B500F019FE08BDC6
:1017900082B0002100910B4B5A6C42F480425A6493
:1017A0005A6C02F480420092009A01911A6C42F045
:1017B00080521A641B6C03F080530193019B02B0AA
:1017C000704700BF0038024030B58BB0002305934E
:1017D0000693079308930993026803F1804303F586
:1017E00090339A4201D00BB030BD0024019403F530
:1017F0008C335A6C42F480725A645A6C02F48072D0
:101800000192019A02941A6B42F004021A631A6B55
:1018100002F004020292029A03941A6B42F001024F
:101820001A631A6B02F001020392039A04941A6B72
:1018300042F002021A631B6B03F002030493049B41
:101840003F2305930325069505A9094800F022FCCE
:101850007F2305930695079405A9064800F01AFC16
:1018600005950695079405A9034800F013FCBAE70F
:1018700000080240000002400004024000B58BB0A6
:101880000023059306930793089309930368374A47
:10189000934205D0364A93422FD00BB05DF804FB3B
:1018A000344A136801331360012B19D000230193CC
:1018B000314B1A6B42F002021A631B6B03F00203F6
:1018C0000193019B4FF44073059302230693032376
:1018D00008930923099305A9284800F0DBFBDCE7FE
:1018E00000230093244B1A6C42F000721A641B6CA4
:1018F00003F000730093009BD8E7002302931E4B74
:101900001A6C42F080621A641B6C03F080630293CD
:10191000029B184A136801331360012B19D000236E
:101920000493154B1A6B42F002021A631B6B03F00F
:1019300002030493049B4FF4405305930223069340
:10194000032308930923099305A90C4800F0A2FB7F
:10195000A3E700230393084B1A6C42F000721A6449
:101960001B6C03F000730393039BD8E700640040F3
:101970000068004098000020003802400004024047
:10198000F0B589B00023039304930593069307935E
:1019900002681F4B9A4201D009B0F0BD00240094A8
:1019A00003F5F8331A6C42F480221A641A6C02F4BC
:1019B00080220092009A01941A6B42F002021A638C
:1019C0001A6B02F002020192019A02941A6B42F021
:1019D00008021A631B6B03F008030293029B4FF487
:1019E00000630393022704970326069607250795AD
:1019F00003A9084800F04EFB4FF48073039304974B
:101A000005940696079503A9034800F043FBC3E736
:101A10000048004000040240000C0240002800F092
:101A2000DF8170B582B00446036813F0010F3BD02C
:101A3000A64B9B6803F00C03042B2CD0A34B9B6894
:101A400003F00C03082B21D06368B3F5803F4FD01F
:101A5000B3F5A02F52D09D4B1A6822F480321A6041
:101A60001A6822F480221A606368002B50D000F0BC
:101A7000B3FC0546954B1B6813F4003F14D100F0EE
:101A8000ABFC401B6428F5D90320B0E18F4B5B68A9
:101A900013F4800FD8D08D4B1B6813F4003F03D094
:101AA0006368002B00F09E81236813F0020F54D06E
:101AB000864B9B6813F00C0F3ED0844B9B6803F061
:101AC0000C03082B33D0E368002B67D0804B012236
:101AD0001A6000F081FC05467C4B1B6813F0020F76
:101AE00053D100F079FC401B0228F5D903207EE198
:101AF000764A136843F480331360B5E7734B1A6872
:101B000042F480221A601A6842F480321A60ABE70D
:101B100000F062FC05466D4B1B6813F4003FC3D018
:101B200000F05AFC401B6428F5D903205FE1674BA5
:101B30005B6813F4800FC6D1644B1B6813F0020F6F
:101B400003D0E368012B40F04F81604A136823F013
:101B5000F803216943EAC1031360236813F0080FF7
:101B600040D0636963B35B4B01221A6000F034FC20
:101B70000546564B5B6F13F0020F33D100F02CFC7F
:101B8000401B0228F5D9032031E1504A136823F0A5
:101B9000F803216943EAC1031360DEE74C4B0022DE
:101BA0001A6000F019FC0546484B1B6813F0020F41
:101BB000D3D000F011FC401B0228F5D9032016E118
:101BC000444B00221A6000F007FC05463F4B5B6F58
:101BD00013F0020F06D000F0FFFB401B0228F5D9DE
:101BE000032004E1236813F0040F78D0374B1B6CFB
:101BF00013F0805F33D100230193344B1A6C42F011
:101C000080521A641B6C03F080530193019B0125E1
:101C1000314B1B6813F4807F23D0A368012B34D091
:101C2000052B38D0294B1A6F22F001021A671A6F60
:101C300022F004021A67A368002B36D000F0CCFB18
:101C40000646224B1B6F13F0020F47D100F0C4FB76
:101C5000801B41F288339842F3D90320C7E0002566
:101C6000D6E71D4A136843F48073136000F0B4FB99
:101C70000646194B1B6813F4807FCED100F0ACFBF5
:101C8000801B0228F5D90320B1E0104A136F43F0FE
:101C900001031367CFE70D4B1A6F42F004021A6776
:101CA0001A6F42F001021A67C5E700F095FB06467D
:101CB000064B1B6F13F0020F10D000F08DFB801B42
:101CC00041F288339842F3D9032090E00038024073
:101CD00000004742800E474200700040EDB9A36902
:101CE000002B00F08380494A926802F00C02082A17
:101CF00051D0022B17D0464B00221A6000F06CFB2B
:101D00000446424B1B6813F0007F42D000F064FB96
:101D1000001B0228F5D9032069E03C4A136C23F02C
:101D200080531364DBE73A4B00221A6000F054FB47
:101D30000546364B1B6813F0007F06D000F04CFBC5
:101D4000401B0228F5D9032051E0E369226A1343BE
:101D5000626A43EA8213A26A5208013A43EA0243E2
:101D6000E26A43EA0263294A5360294B01221A605E
:101D700000F032FB0446254B1B6813F0007F06D1B0
:101D800000F02AFB001B0228F5D903202FE00020D9
:101D90002DE000202BE0012B2BD01C4B5B6803F4C3
:101DA0008001E269914226D103F03F02216A8A4212
:101DB00023D1616A47F6C0721A40B2EB811F1ED16F
:101DC00003F44031A26A5208013AB1EB024F18D134
:101DD00003F07063E26AB3EB026F14D1002006E0F7
:101DE00001207047012002E0012000E0002002B045
:101DF00070BD0120FBE70120F9E70120F7E7012092
:101E0000F5E70120F3E70120F1E700BF00380240C9
:101E100060004742314B9B6803F00C03042B58D001
:101E2000082B58D170B52D4B5A6802F03F025B6801
:101E300013F4800F2AD0294B5868C0F38810054648
:101E4000002643011B1A66EB0604A10141EA9361D7
:101E50009801C01A61EB0401CB0043EA5073C4003F
:101E60001946601946EB01014B0243EAD053440284
:101E7000204619463346FFF769F9184B5B68C3F3F0
:101E8000014301335B00B0FBF3F070BD134B5868A6
:101E9000C0F388100546002643011B1A66EB0604B2
:101EA000A10141EA93619801C01A61EB0401CB00E2
:101EB00043EA5073C4001946601946EB01018B02D6
:101EC00043EA90538402204619463346FFF73EF911
:101ED000D3E7034870470348704700BF003802400B
:101EE00000127A000024F400002800F09B8070B5F6
:101EF0000446504B1B6803F007038B4208D2CBB259
:101F00004C4A1370136803F007038B4240F08C8037
:101F1000236813F0020F17D013F0040F04D0464AC1
:101F2000936843F4E0539360236813F0080F04D0E0
:101F3000414A936843F4604393603F4A936823F0B7
:101F4000F003A068034393600D46236813F0010F6C
:101F500032D06368012B21D09A1E012A25D9364A36
:101F6000126812F0020F61D033498A6822F003022E
:101F700013438B6000F030FA06462F4B9B6803F04A
:101F80000C036268B3EB820F16D000F025FA801BB9
:101F900041F288339842F0D9032042E0264A126881
:101FA00012F4003FE0D101203BE0234A126812F016
:101FB000007FD9D1012034E01E4B1B6803F00703DA
:101FC000AB4207D9EAB21B4B1A701B6803F0070338
:101FD000AB422DD1236813F0040F06D0164A936844
:101FE00023F4E053E1680B439360236813F0080F78
:101FF00007D0114A936823F46043216943EAC1037F
:102000009360FFF707FF0C4B9B68C3F303130B4A66
:10201000D35CD8400A4B18600A4B186800F090F95E
:10202000002070BD012070470120FAE70120F8E789
:102030000120F6E7003C0240003802407C300008F6
:102040006C00002068000020014B1868704700BF3A
:102050006C00002008B5FFF7F7FF044B9B68C3F343
:102060008223034AD35CD84008BD00BF0038024039
:102070008C30000808B5FFF7E7FF044B9B68C3F3FB
:102080004233034AD35CD84008BD00BF0038024049
:102090008C30000800230F2B00F2DC80F0B482B0FB
:1020A0005DE086685F000324BC4026EA0406CC6835
:1020B000BC4034438460466826EA02064C68C4F398
:1020C00000129A403243426056E0DC08083450F86F
:1020D000247003F0070296000F22B24027EA02079D
:1020E0000A69B2403A4340F8242059E0072200E050
:1020F0000022B2403A430234574E46F82420574A51
:102100009468EA4302EA04064F6817F4801F01D07E
:1021100045EA0406514CA660E46802EA04064F68EA
:1021200017F4001F01D045EA04064C4CE6606468D1
:1021300002EA04064F6817F4003F01D045EA04069E
:10214000464C6660246822404E6816F4803F01D0F9
:1021500045EA0402414C226001330F2B77D801225B
:102160009A400C6804EA0205AA42F5D14C6804F0D2
:102170000304013C012C94D94A6802F00302032AAB
:1021800009D0C4685E000322B24024EA02048A68CF
:10219000B2402243C2604A6802F00302022A94D08D
:1021A00004685E000322B24024EA02044A6802F096
:1021B0000302B240224302604A6812F4403FCBD08F
:1021C00000220192264A546C44F480445464526CB8
:1021D00002F480420192019A9C08A61C1E4A52F801
:1021E000267003F0030296000F22B24027EA02078E
:1021F0001C4A90423FF47CAF02F5806290421AD0B4
:1022000002F58062904218D002F58062904216D0AA
:1022100002F58062904214D002F58062904212D0A2
:1022200002F58062904210D002F5806290423FF445
:102230005DAF08225DE701225BE7022259E7032236
:1022400057E7042255E7052253E7062251E702B07B
:10225000F0BC7047704700BF00380140003C0140AF
:1022600000380240000002400AB181617047090451
:1022700081617047436901EA030221EA030141EAEF
:102280000241816170470000074AD36823F4E0638C
:102290001B041B0C000200F4E060184340F0BF6018
:1022A00040F40030D060704700ED00E030B4174BD0
:1022B000DB68C3F30223C3F10704042C28BF042402
:1022C0001D1D062D01D9033B00E000234FF0FF3513
:1022D00005FA04F421EA0401994005FA03F322EA1D
:1022E00003031943002809DB0901C9B200F160406A
:1022F00000F5614080F8001330BC704700F00F001B
:102300000901C9B2024B1954F6E700BF00ED00E025
:1023100014ED00E00138B0F1807F0AD2064B58601E
:10232000064AF02182F823100020986007221A60E4
:1023300070470120704700BF10E000E000ED00E0B2
:1023400010B504460E4B18784FF47A73B3FBF0F3D4
:102350000C4A1068B0FBF3F0FFF7DCFF68B90F2CF4
:1023600001D901200AE0002221464FF0FF30FFF79B
:102370009DFF054B1C60002000E0012010BD00BF48
:10238000640000206C0000206800002008B50B4BA2
:102390001A6842F400721A601A6842F480621A6085
:1023A0001A6842F480721A600320FFF76DFF0F2055
:1023B000FFF7C6FFFFF7ECF9002008BD003C024024
:1023C000034A1168034B1B780B441360704700BF2E
:1023D0002003002064000020014B1868704700BFF4
:1023E0002003002038B50446FFF7F6FF0546B4F198
:1023F000FF3F02D0044B1B781C44FFF7EDFF401B4E
:10240000A042FAD338BD00BF64000020034AD2F8CE
:10241000883043F47003C2F88830704700ED00E064
:102420004A4B5A6822F440325A605A6841680A435B
:102430005A600268536823F48073536002685368DB
:10244000016943EA012353600268536823F0407333
:1024500053600268536881680B4353600268936855
:1024600023F40063936002689368C1680B43936030
:10247000826A374B9A4257D00268936823F07063A0
:10248000936002689368816A0B4393600268936863
:1024900023F04053936002689368C16A0B439360D2
:1024A0000268936823F00203936002689368017ED8
:1024B00043EA4103936090F82030002B3FD002683C
:1024C000536843F4006353600268536823F4604325
:1024D000536001684B68426A013A43EA42334B60F9
:1024E0000268D36A23F47003D3620168CB6AC269BD
:1024F000013A43EA0253CB620268936823F4007303
:1025000093600268936890F8301043EA4123936027
:102510000268936823F4806393600268936841695A
:1025200043EA8123936070470268936823F07063E5
:1025300093600268936823F040539360B0E70268A9
:10254000536823F400635360CAE700BF00230140CF
:102550000100000F38B310B50446036C43B1236C7F
:1025600013F0100F0BD00120002384F83C3010BD75
:10257000FFF72AF90023636484F83C30EFE7236C0B
:1025800023F4885323F0020343F00203236420461C
:10259000FFF746FF00206064236C23F0030343F041
:1025A00001032364E0E701207047000082B00023AC
:1025B000019390F83C30012B00F08980012380F8D2
:1025C0003C3003689A6812F0010F12D19A6842F009
:1025D00001029A60414B1B68414AA2FB03239B0CFA
:1025E00003EB43030193019B1BB1019B013B01934F
:1025F000F9E70268936813F0010F5DD0036C23F4D0
:10260000E06323F0010343F480730364536813F41D
:10261000806F05D0036C23F4405343F4805303646C
:10262000036C13F4805F1CD0436C23F006034364F7
:10263000002380F83C3003686FF022021A60294BB7
:102640005B6813F01F0F27D10368274A934211D00C
:1026500002F58072934207D0244A934214D000209E
:1026600033E000234364E3E702F50072526812F09E
:102670001F0FF1D19A6812F0405F2AD19A6842F098
:1026800080429A60002020E002F58072526812F0C9
:10269000100FEFD0002018E00368134A934201D0D6
:1026A000002012E09A6812F0405F14D19A6842F05C
:1026B00080429A60002008E0036C43F0100303643A
:1026C000436C43F001034364002002B070470220D2
:1026D000FBE70020F9E70020F7E700BF6C000020CF
:1026E00083DE1B4300230140002001400022014003
:1026F00003689A6812F4806F03D09B6813F4807F9C
:102700001CD170B50D460446FFF766FE06462368E9
:102710001A6812F0020F20D1B5F1FF3FF7D0B5B91A
:1027200023681B6813F0020FF1D1236C43F00403FC
:102730002364002384F83C30032032E0036C43F030
:1027400020030364002380F83C3001207047FFF72A
:1027500043FE801BA842DAD9E2E76FF012021A604A
:10276000236C43F40073236423689A6812F0405F7B
:1027700016D1207EB0B9DA6A12F4700F03D09B68CC
:1027800013F4806F0DD1236C23F480732364236CC6
:1027900013F4805F05D1236C43F00103236400E050
:1027A000002070BD0020FCE70368D86C7047000073
:1027B00030B482B00023019390F83C30012B00F03C
:1027C000B680012380F83C300B68092B3ED90568A0
:1027D000EA689BB203EB43031E3B072404FA03F3AE
:1027E00022EA0303EB600568EA688C680B8803EB58
:1027F00043031E3B04FA03F31343EB604B68062BC1
:102800003AD805686A6B03EB8303053B1F2404FA7F
:1028100003F322EA03036B6305686A6B4B6803EBFF
:102820008303053B0C8804FA03F313436B630268CC
:10283000404B9A4250D002683E4B9A4255D00023FA
:1028400080F83C30184602B030BC704705682A69F1
:102850009BB203EB4303072404FA03F322EA0303C6
:102860002B6105682A698C680B8803EB430304FA23
:1028700003F313432B61C1E70C2B16D805682A6BB1
:1028800003EB8303233B1F2404FA03F322EA03032D
:102890002B6305682A6B4B6803EB8303233B0C888F
:1028A00004FA03F313432B63C1E70568EA6A03EBF9
:1028B0008303413B1F2404FA03F322EA0303EB6280
:1028C0000568EA6A4B6803EB8303413B0C8804FA12
:1028D00003F31343EB62AAE70B68122BABD1164A42
:1028E000536843F480035360A5E70B68103B012B4A
:1028F000A5D8114A536843F4000353600B68102BAA
:102900009DD10E4B1B6802F1467202F52E3202F287
:102910008332A2FB03239B0C03EB83035A00019237
:10292000019B002B8BD0019B013B0193F8E7022018
:1029300089E700BF00200140002301406C00002017
:10294000002800F0A18038B5044690F82030D3B1BB
:102950002268136843F001031360FFF73DFD05464D
:1029600023685A6812F0010F10D1FFF735FD401BA4
:102970000A28F5D9636A43F400336362052384F8B7
:102980002030012038BDFEF779FFE1E71A6822F018
:1029900002021A60FFF720FD054623685A6812F00C
:1029A000020F0DD0FFF718FD401B0A28F5D9636A06
:1029B00043F400336362052384F820300120E1E70B
:1029C000227E012A3DD01A6822F080021A60637EBE
:1029D000012B3BD02268136823F040031360A37ED1
:1029E000012B39D02268136823F020031360E37EA3
:1029F000012B37D02268136843F010031360237F44
:102A0000012B35D02268136823F008031360637F1D
:102A1000012B33D02268136823F004031360A368EA
:102A2000E268134322691343626913436268013AFF
:102A300021681343CB6100206062012384F82030B9
:102A4000A0E71A6842F080021A60C0E722681368A3
:102A500043F040031360C2E72268136843F0200389
:102A60001360C4E72268136823F010031360C6E7FD
:102A70002268136843F008031360C8E722681368EC
:102A800043F004031360CAE70120704790F8203038
:102A9000013BDBB2012B05D9436A43F48023436237
:102AA0000120704770B4434BD3F8002242F001027A
:102AB000C3F80022D3F8002222F47C52C3F800228B
:102AC000D3F80022486A42EA0022C3F800224A6989
:102AD00002F01F02012000FA02F2D3F81C42D04398
:102AE0000440C3F81C42CB69B3B9324BD3F80C4253
:102AF0000440C3F80C42CE688D884C6945EA06450F
:102B0000483443F834508E680C884D6944EA0644D2
:102B1000483503EBC5035C60CB69012B1DD08B6985
:102B2000002B32D1234CD4F804320340C4F80432D1
:102B30000B698BBB1F4BD3F814422040C3F814021F
:102B40000B6A012B2FD01B4AD2F8003223F001036D
:102B5000C2F80032002070BC7047164BD3F80C420C
:102B60001443C3F80C420E688D884C6945EA06454B
:102B7000483443F834508E688C894D6944EA0644E1
:102B8000483503EBC5035C60C9E70A4CD4F804324E
:102B90001343C4F80432CBE70648D0F81432134389
:102BA000C0F81432CCE70349D1F81C321A43C1F8FB
:102BB0001C22C8E70064004070B590F82050EDB2C8
:102BC000012D06D0436A43F40023436201252846C1
:102BD00070BD0446022380F820300268136823F099
:102BE00001031360FFF7F8FB064623685B6813F0E8
:102BF000010F0CD0FFF7F0FB801B0A28F5D9636AA0
:102C000043F400336362052384F82030DFE70025B6
:102C10006562DCE770B490F820400568AD68013C5F
:102C2000E4B2012C65D815F0E05F5CD0C5F3016516
:102C3000022D05D9436A43F40003436201205DE09D
:102C40000124AC401C608B68002B39D10E68CB6826
:102C5000046843EA465605F118031B01E650036871
:102C60000C6905F1180603EB06135C600B7D012B64
:102C700031D0D17993791B0443EA0163517943EA56
:102C800001231479016823432C012144C1F88C31BC
:102C9000D17893781B0443EA0163517843EA012316
:102CA000117802680B432244C2F88831016805F1AB
:102CB00018031B01CA5842F00102CA5000201DE04F
:102CC0004C6843EAC403CC680668234305F1180442
:102CD00024013351C3E7036803EB0613596841F439
:102CE00080715960C5E7436A43F4001343620120D1
:102CF00004E0436A43F480234362012070BC7047C0
:102D000090F82030013BDBB2012B01D90020704745
:102D10000368986810F0806000D001209A6812F073
:102D2000006F00D001309B6813F0805FEFD001305E
:102D30007047000070B504460268136923F44053DD
:102D4000C1680B43136183680269134342691343EB
:102D5000C2691A430168CB6823F4164323F00C03BD
:102D60001343CB600268536923F4407381690B43BA
:102D700053610368344A934206D002F5806293425D
:102D800002D0FFF767F901E0FFF774F9E369B3F5E3
:102D9000004F2AD00026051846EB06012D1846EBF9
:102DA0000101CB0043EA5573EA00154619466368F2
:102DB0009A009B0F281846EB0101FEF7C7F9234D37
:102DC000A5FB00325109642303FB11031B013233BD
:102DD000A5FB03235B0903F0F00202EB011203F0F1
:102DE0000F03216813448B6070BD0026051846EB65
:102DF00006012D1846EB0101CB0043EA5573EA00AA
:102E00001546194662683346921846EB03032818A4
:102E100046EB0101FEF79AF90C4DA5FB0032510972
:102E2000642303FB1103DB003233A5FB03235B099F
:102E30005A0002F4F87202EB011203F00703216852
:102E400013448B60D0E700BF001001401F85EB5199
:102E50002DE9F04104460F4616469846069D236824
:102E60001B6837EA03030CBF01230023B3422BD1B5
:102E7000B5F1FF3FF3D02DB1FFF7AEFAA0EB08009C
:102E8000A842ECD9226802F10C0353E8003F23F476
:102E9000D0730C3242E800310029F3D1226802F1EC
:102EA000140353E8003F23F00103143242E80031D9
:102EB0000029F3D1202384F83D3084F83E300023EC
:102EC00084F83C30032000E00020BDE8F08158B3D6
:102ED00010B5044690F83D300BB3242384F83D3000
:102EE0002268D36823F40053D3602046FFF722FF03
:102EF0002268136923F4904313612268536923F015
:102F00002A0353612268D36843F40053D36000203E
:102F10002064202384F83D3084F83E3010BD80F8D2
:102F20003C30FEF72DFDD8E7012070472DE9F04138
:102F300082B01E4690F83D30DBB2202B54D10446BF
:102F40000D469046002954D0002A54D090F83C30C9
:102F5000012B52D0012380F83C300023036421234D
:102F600080F83D30FFF738FA0746A4F82480A4F82B
:102F70002680A368B3F5805F05D04FF000080023DA
:102F800084F83C3011E0236913B14FF00008F6E7F4
:102F9000A8460025F3E738F8023B2268C3F308038C
:102FA0005360E38C013B9BB2E384E38C9BB273B12F
:102FB00000963B46002280212046FFF749FFF0B9EA
:102FC000002DE8D015F8012B23685A60E9E7009638
:102FD0003B46002240212046FFF73AFF034680B9D6
:102FE000202284F83D2000E00223184602B0BDE80C
:102FF000F0810123F9E70123F7E70223F5E7032333
:10300000F3E70323F1E70000DFF834D00D480E4961
:103010000E4A002302E0D458C4500433C4188C4232
:10302000F9D30B4A0B4C002301E013600432A24297
:10303000FBD3FFF7EBF9FDF707F9FEF723FB70472A
:10304000000002200000002070000020E030000896
:103050007000002028030020FEE70000F8B500BF44
:10306000F8BC08BC9E467047F8B500BFF8BC08BC69
:043070009E467047C1
:10307400252E34640D0A000000000000000000004A
:10308400010203040607080900000000010203040A
:10309400232D302B20000000686C4C0065666745CA
:1030A40046470000303132333435363738394142FF
:1030B400434445460000000030313233343536375E
:0C30C4003839616263646566000000003A
:0830D000ACE0FF7F01000000ED
:0430D80029020008C1
:0430DC0001020008E5
:1030E00004000020000000000000000000000000BC
:1030F00000000000000000000000000000000000D0
:1031000000000000000000000000000000000000BF
:1031100000000000000000000000000000000000AF
:10312000000000000000000000000000000000009F
:10313000000000000000000000000000000000008F
:103140000000000001000000100000000024F40056
:0400000508003009B6
:00000001FF
