:020000040800F2
:1000000000000220B5390008F9170008FB170008A6
:10001000FD170008FF170008011800080000000085
:1000200000000000000000000000000003180008AD
:10003000051800080000000007180008091800084B
:10004000053A0008053A0008053A0008053A000894
:10005000053A0008053A0008053A0008053A000884
:10006000053A0008053A0008053A0008053A000874
:10007000053A0008053A0008053A0008053A000864
:10008000053A0008053A0008053A0008053A000854
:10009000053A0008053A0008053A0008053A000844
:1000A000053A0008053A0008053A0008053A000834
:1000B000053A0008053A0008053A0008053A000824
:1000C000053A0008053A0008053A0008053A000814
:1000D000053A0008053A0008053A0008053A000804
:1000E000053A0008053A0008053A0008053A0008F4
:1000F000053A0008053A0008053A0008053A0008E4
:10010000053A0008053A0008053A0008053A0008D3
:10011000053A0008053A0008053A0008053A0008C3
:100120001118000821180008053A0008053A0008CF
:10013000053A0008053A0008053A0008053A0008A3
:10014000053A0008053A0008053A0008053A000893
:10015000053A0008053A0008053A0008053A000883
:10016000053A0008053A0008053A0008053A000873
:10017000053A0008053A0008053A000800000000AA
:08018000053A0008053A0008E9
:100190000348044B834202D0034B03B11847704716
:1001A0007000002070000020000000000548064993
:1001B000091A891001EBD171491002D0034B03B128
:1001C00018477047700000207000002000000000F9
:1001D00010B5064C237843B9FFF7DAFF044B13B18F
:1001E0000448AFF300800123237010BD700000208D
:1001F00000000000083A000808B5044B1BB1044990
:100200000448AFF30080BDE80840CFE700000000DD
:1002100074000020083A000870B50D4E0D4D761B95
:10022000B61006D00024013455F8043B9847A64286
:10023000F9D1094E094D761B03F0E6FBB61006D046
:100240000024013455F8043B9847A642F9D170BD0B
:10025000AC3A0008AC3A0008B03A0008AC3A0008E2
:10026000F0B4860746D0541E002A3CD0CAB20346DA
:1002700002E014F1FF3436D303F8012B9D07F8D1C7
:10028000032C29D9CDB245EA05250F2C45EA0545B1
:1002900033D9A4F11006360903F1200707EB06173E
:1002A00003F1100242E9045542E902551032BA4204
:1002B000F8D1721C14F00C0F03EB021204F00F06BD
:1002C00013D0331F23F003030433134442F8045BB9
:1002D0009342FBD106F003042CB1C9B21C4403F8CD
:1002E000011B9C42FBD1F0BC704734461346002CE6
:1002F000F3D1F8E714460346C2E71A462646E0E77C
:1003000008B430B5002A9CB0044635DB4FF40273C4
:1003100002910691ADF8143020A918D0013A0B468D
:100320000492079201911F9A4FF6FF7502A9ADF84A
:10033000165000F049F9421C01DA8B232360029B1E
:1003400000221A701CB0BDE8304001B070470B4667
:100350000492079201914FF6FF751F9AADF816505F
:1003600002A900F031F9431C01DA8B2323601CB091
:10037000BDE8304001B070478B2202604FF0FF3083
:10038000F5E700BF0CB430B5204B00299DB01C68C8
:1003900037DB4FF4027302900690ADF8143021A8B9
:1003A00019D001390346209A0491079101904FF624
:1003B000FF7502A92046ADF8165000F005F9421C61
:1003C00001DA8B232360029B00221A701DB0BDE866
:1003D000304002B0704703460491079101904FF6F8
:1003E000FF75209AADF8165002A9204600F0ECF8EF
:1003F000431C01DA8B2323601DB0BDE8304002B0FE
:1004000070478B2323604FF0FF30F5E7000000209A
:100410002DE9F0478E681D46AE420C460B68174624
:1004200036D88046888910F4906F0ED1354618462C
:100430002A46394600F0CEFCA2682368961B2B445E
:10044000A66023600020BDE8F087D1E9041606EB22
:100450004606A3EB010906EBD6766B1C76104B44DF
:10046000B342324684BF1E463246430512D511467A
:10047000404600F06DFD824600B34A46216900F017
:100480000FFCA38923F4906343F08003A38106E06B
:100490002E46CCE7404600F0BFFD824650B1A6EBA9
:1004A00009020AEB09036661C4F810A02360A26088
:1004B0002E46BCE72169404600F0F4FC0C23C8F846
:1004C0000030A38943F04003A3814FF0FF30BAE727
:1004D0002DE9F04F936883B09046002B6DD01768DC
:1004E0008D6882460C460868083743E0A38913F4F8
:1004F000906F2ED0D4E9041505EB4505A0EB010B58
:1005000005EBD5750BEB06006D100130A8422A46AD
:1005100084BF05462A465B0536D51146504600F095
:1005200017FD00283AD05A462169019000F0B8FB27
:10053000A289019B22F4906242F08002A281A5EB85
:100540000B0203EB0B00656123612060A26035465E
:10055000B3465A46494600F03DFCD8F80830A26838
:100560002068551B58449E1BA5602060C8F8086091
:100570001EB3083757E90296AB46002EF9D0AE42BB
:10058000B4D23546B346E4E7504600F045FD034695
:100590000028D4D12169504600F084FC0C23CAF80D
:1005A0000030A389002243F040034FF0FF30A381C5
:1005B000C8E9012203B0BDE8F08F0020C8F80400AC
:1005C00003B0BDE8F08F00BF2DE9F04F90468A8957
:1005D0009FB014068B46029003D50A69002A00F0EA
:1005E0000B81059330238DF8323098F800308E4E11
:1005F000002120220B918DF831200127002B00F0E3
:100600008480252B00F0F680454603E0252B00F082
:10061000868025466B786C1C002BF7D1B4EB080A5A
:1006200073D04246534659460298FFF7F1FE013017
:100630006BD00B9B6A7853440B93002A65D0002340
:100640004FF0FF3201340693CDE908338DF85B306B
:100650001C93079205E0069A07FA03F313432C460E
:1006600006932546052215F8011B304600F0C8FA0E
:10067000AA46831B0028EED1069BD90644BF202240
:100680008DF85B2021781A0744BF2B228DF85B2060
:100690002A2948D1059A11680432002905927EDB87
:1006A00009916178A51C2E2956D0604C0322204662
:1006B00000F0A6FA002868D0001B069B402404FA2C
:1006C00000F00343069305F10108297858488DF896
:1006D0003010062200F094FA002866D0554B002B0B
:1006E00056D005AB00935A46534B029806A9AFF378
:1006F00000808146B9F1FF3F07D00B9B4B440B9321
:1007000098F80030002B7FF47CAFBBF80C305B0610
:1007100054BF0B984FF0FF301FB0BDE8F08FB4EB23
:10072000080A8CD07DE7A1F13002092A88BFA246D1
:10073000B9D8099B01E02C460135297803EB8303E6
:1007400002EB4303A1F13002092AAA46F3D92E296C
:1007500004F102050993A8D19AF801102A292ED193
:10076000059B9AF802101A6807920433002A059331
:100770000AF103050AF1020337DB2C4C0322204661
:100780009A4600F03DFA002896D1A84655469CE7C7
:10079000059B073323F0070308330593ADE7494270
:1007A00043F00203099106937BE705AB00935A4699
:1007B000214B029806A900F0D7F881469AE7A1F1EB
:1007C00030020023092A079301D923E055466978AE
:1007D00003EB830302EB4303A1F13002092A05F185
:1007E000010AF3D9023507935FE74FF0FF329A46CB
:1007F00007925AE7444622E74021039300F0A8FB02
:10080000039BCBF80000CBF8100030B14022CBF8AE
:100810001420E6E6AA46013547E7029A0C23136046
:100820004FF0FF3078E700BF683A0008703A0008E0
:10083000743A000800000000110400082DE9F04798
:100840000C4691460A698968DDF820808A42B8BF63
:100850000A46C9F8002094F8431006461F4611B115
:100860000132C9F80020236899065CD5D9F8002028
:100870000232C9F80020236813F0060F19461DD173
:10088000E1688A1A002AD8BF194617DD04F1190A4F
:10089000002505E0E368D9F800209B1AAB420CDD87
:1008A0000123524639463046C047013005F1010563
:1008B000F0D14FF0FF30BDE8F087216894F8433065
:1008C000003318BF01238A060AD5E1185A1C3020CC
:1008D00081F84300224494F8451082F84310023313
:1008E00004F1430239463046C0470130E1D0236865
:1008F000A268216903F00603042B1DD08A4226DD7D
:100900004FF00009521A91441A34002501E04D4578
:100910001DDA0123224639463046C047013005F131
:100920000105F4D1C5E713F0060F13D094F8433056
:10093000003318BF0123D3E7D9F80000E3688A42E7
:10094000A3EB000323EAE379DCDC002BDCDC0020F2
:10095000BDE8F087E168D9F800208A1A002AD8BFDC
:10096000194693DCAAE700BF2DE9F0430C46097E47
:1009700085B06E29064617460C98984604F1430E3A
:100980006DD039D9732900F0F68044D9752900F06B
:100990000481782940F0118178232268DFF858C259
:1009A00084F845300168150651F8043B016040F1B8
:1009B000A180D10744BF42F020022260002B00F04A
:1009C00093801022002184F843106068A060002802
:1009D000C0F2C880216821F004012160002B40F0A2
:1009E000A380002840F0C0807546082A00F0AC8043
:1009F000AEEB0503236141E0632900F0E5801AD8DE
:100A0000002938D0582940F0D88084F84510226851
:100A1000DFF8E8C1C6E76F2900F0BF80702940F019
:100A2000CC802268DFF8D0C142F020027823226017
:100A300084F84530B6E7642902D0692940F0BD80CA
:100A400022680368110603F1040557D5196805608B
:100A50000B46002959DBDFF8A4C10A22B5E7036879
:100A6000226861691D1D056015061B6802D45006C9
:100A700000F1BD801960002375462361CDF8008028
:100A80003B4603AA21463046FFF7D8FE013020D06E
:100A90002A46236939463046C047013019D02268BA
:100AA0000398E368920719D51A1A002A16DD04F193
:100AB0001909002504E0E36803981A1AAA420DDD1B
:100AC00001234A4639463046C047013005F1010549
:100AD000F1D14FF0FF3005B0BDE8F0839842B8BFC8
:100AE000184605B0BDE8F083226822F0200222609B
:100AF000102267E7500648BF9BB25AE75106A5D5BA
:100B0000B3F9003005601946A3E76168A1602D20A4
:100B10000029C3F1000384F8430002DB22F0040241
:100B20002260DFF8D8C00A22754600E00B46B3FB0E
:100B3000F2F102FB113093421CF8000005F8010DA0
:100B4000F4D2082A7FF454AF2368DB077FF550AF57
:100B5000626823699A423FF74BAF302305F8013CA6
:100B6000013D45E7002BDFD19CF8003084F842308E
:100B700004F1420539E703686268191D01601D68C8
:100B80000021284600F03CF8002832D0401B60606D
:100B90002061002384F8433070E72268036812F074
:100BA000800F03F104051AD01B6805606F290CBF84
:100BB00008220A22DFF844C004E7012384F8421027
:100BC000236104F14205E4E703681A68191D012353
:100BD000016004F1420584F842202361D9E712F054
:100BE000400F0DBF1B6805601B880560DEE719809C
:100BF00041E76068CCE700BF903A00087C3A000803
:100C000001F0FF01102A2BDB10F0070F08D010F8BD
:100C1000013B013A8B422DD010F0070F42B3F6D1C1
:100C2000F0B441EA012141EA014122F007047FF0DA
:100C300000070023F0E80256083C85EA010586EA31
:100C4000010685FA47F5A3FA87F586FA47F6A5FA6D
:100C500087F68EB9EED1F0BC01F0FF0102F0070279
:100C600032B110F8013B013A83EA010313B1F8D124
:100C70000020704701387047002D06BF3546033805
:100C8000073815F0010F07D1013015F4807F02BF3E
:100C9000013015F4C03F0130F0BC0138704700BF8F
:100CA000844641EA000313F003036DD1403A41D377
:100CB00051F8043B40F8043B51F8043B40F8043B36
:100CC00051F8043B40F8043B51F8043B40F8043B26
:100CD00051F8043B40F8043B51F8043B40F8043B16
:100CE00051F8043B40F8043B51F8043B40F8043B06
:100CF00051F8043B40F8043B51F8043B40F8043BF6
:100D000051F8043B40F8043B51F8043B40F8043BE5
:100D100051F8043B40F8043B51F8043B40F8043BD5
:100D200051F8043B40F8043B51F8043B40F8043BC5
:100D3000403ABDD2303211D351F8043B40F8043B65
:100D400051F8043B40F8043B51F8043B40F8043BA5
:100D500051F8043B40F8043B103AEDD20C3205D375
:100D600051F8043B40F8043B043AF9D2043208D06D
:100D7000D2071CBF11F8013B00F8013B01D30B88DF
:100D800003806046704700BF082A13D38B078DD0BD
:100D900010F003038AD0C3F10403D21ADB071CBF8F
:100DA00011F8013B00F8013B80D331F8023B20F8F9
:100DB000023B7BE7043AD9D3013A11F8013B00F832
:100DC000013BF9D20B7803704B7843708B788370BA
:100DD000604670478842F0B40DD98B1883420AD917
:100DE000841832B1224613F8014D02F8014D9942A0
:100DF000F9D1F0BC70470F2A0ED80346541E002AC2
:100E0000F7D001340C44013B11F8012B03F8012FFA
:100E1000A142F9D1F0BC704740EA01039B073BD1E6
:100E2000A2F110073F0901F1200606EB071601F1B8
:100E3000100300F1100453F8105C44F8105C53F8F0
:100E40000C5C44F80C5C53F8085C44F8085C53F8FC
:100E5000045C44F8045C1033B34204F11004EAD19A
:100E60007B1C1B0112F00C0F194402F00F05034408
:100E700015D0043DAD0803EB850C1C1F0E4656F83B
:100E8000047B44F8047F6445F9D10135AD002B445F
:100E9000294402F00302B1E7541E0346B1E72A4693
:100EA000ACE700BF00293CD038B551F8043C0C1F1A
:100EB000002BB8BFE418054600F0E6F8234B1A688B
:100EC0002AB1A2420DD921686018824223D0626003
:100ED00028461C60BDE8384000F0D8B8A34203D8CB
:100EE0001A465368002BF9D111685018A04219D046
:100EF00024D821686018834206D063605460284675
:100F0000BDE8384000F0C2B8D3E900030144636093
:100F100021605460F3E7D2E900020144626021607D
:100F2000D6E7704720680144501883421160E6D12B
:100F3000D3E90003014453601160E0E70C232B6008
:100F40002846BDE8384000F0A1B800BF8C00002062
:100F5000F8B5CD1C25F0030508350C2D38BF0C2540
:100F6000002D064633DBA94231D82A4F00F08CF819
:100F70003A6852B113685B1B04D43FE023685B1BE3
:100F800029D522465468002CF8D1796800293BD035
:100F90002946304600F066F8431C28D0C41C24F0D3
:100FA0000304A04205D0211A304600F05BF801305E
:100FB0001DD02560304600F069F804F10B0020F0E8
:100FC0000700231DC21A01D01B1AA350F8BD0C2222
:100FD00032600020F8BD0B2B05D8A242636811D007
:100FE0005360E7E7144623601C442560E2E70C23C6
:100FF0003046336000F04AF80020F8BD0B2BF1D8E2
:10100000536814463B60D5E7304600F02BF8786013
:10101000BEE700BF8C00002009B3F8B51446CAB182
:1010200006460D4600F034F8A04202D32F4638465B
:10103000F8BD21463046FFF78BFF07460028F6D063
:1010400022462946FFF72CFE30462946FFF72AFFA5
:101050003846F8BD2746FFF725FF3846F8BD11464C
:10106000FFF776BF38B5074C0023054608462360D6
:1010700000F016F8431C00D038BD2368002BFBD0CD
:101080002B6038BD58240020704700BF704700BF58
:1010900051F8043C181F002BBCBF0B58C0187047F8
:1010A000044A05491368002B08BF0B46184410601A
:1010B00018467047940000206024002053B94AB9B4
:1010C000002908BF00281CBF4FF0FF314FF0FF3050
:1010D00000F074B9ADF1080C6DE904CE00F006F82B
:1010E000DDF804E0DDE9022304B070472DE9F047A4
:1010F000089E04468846002B40F085808A421546AB
:1011000048D9B2FA82F24AB1C2F1200701FA02F3D9
:1011100020FA07F7954047EA030894404FEA154E36
:10112000230CB8FBFEF71FFA85FC0EFB178843EA79
:10113000084307FB0CF1994209D9EB1807F1FF307E
:1011400080F0E380994240F2E080023F2B445B1A3A
:10115000A4B2B3FBFEF00EFB103344EA034400FBE1
:101160000CFCA44509D92C1900F1FF3380F0CB8089
:10117000A44540F2C88002382C4440EA0740A4EB62
:101180000C0400271EB1D4400023C6E900433946B1
:10119000BDE8F087002A53D0B2FA82F2002A40F06C
:1011A000B680491B4FEA154E1FFA85F80127B1FB9F
:1011B000FEFC230C0EFB1C1143EA014308FB0CF15F
:1011C000994207D9EB180CF1FF3002D2994200F294
:1011D000EC808446591AA3B2B1FBFEF00EFB10144A
:1011E00043EA044408FB00F8A04507D92C1900F194
:1011F000FF3302D2A04500F2DC801846A4EB0804BD
:1012000040EA0C40BEE78B4208D9002E78D0002778
:10121000C6E9000138463946BDE8F087B3FA83F7DE
:101220007FB98B4202D3824200F2BD80841A61EB07
:10123000030301209846002EA9D0C6E90048A6E77E
:10124000FFDEC7F12005BB4022FA05FC4CEA030C87
:1012500001FA07F420FA05F821FA05F34FEA1C4ECB
:1012600048EA0404B3FBFEF9210C0EFB19331FFA04
:101270008CF841EA034309FB08FA9A4502FA07F29F
:1012800000FA07F10BD91CEB030309F1FF3080F0E2
:1012900088809A4540F28580A9F102096344A3EB56
:1012A0000A03A4B2B3FBFEF00EFB103344EA03447E
:1012B00000FB08F8A04508D91CEB040400F1FF333B
:1012C0006BD2A04569D90238644440EA0940A4EBD6
:1012D0000804A0FB02894C45C6464B4654D351D066
:1012E000002E69D0B1EB0E0264EB030404FA05F59D
:1012F00022FA07F3FC401D43C6E90054002746E7E5
:101300003746304643E7184637E707461FE7C2F13E
:10131000200320FA03F7954001FA02F021FA03F3C3
:101320004FEA154E3843010CB3FBFEF71FFA85F860
:101330000EFB173341EA034107FB08F38B4204FA23
:1013400002F407D9691807F1FF3C28D28B4226D94D
:10135000023F2944CB1A81B2B3FBFEF00EFB1033DF
:1013600041EA034100FB08F38B4207D9691800F1F9
:10137000FF3C10D28B420ED902382944C91A40EAE8
:10138000074714E74145ABD2B8EB020E69EB0C02FC
:1013900001381346A4E76046F0E7184695E767462C
:1013A000D8E781467BE7384645E7ACF1020C2B4491
:1013B00010E702382C4421E73746E8E6704700BFC3
:1013C00010B582B0002401940D4B1A6B42F48002D8
:1013D0001A631B6B03F480030193019B2246214691
:1013E000382001F069FD382001F09AFD224621469F
:1013F000392001F061FD392001F092FD02B010BDED
:101400000038024030B58DB0002407940894099448
:101410000A940B940194274B1A6B42F080021A63D2
:101420001A6B02F080020192019A02941A6B42F048
:1014300004021A631A6B02F004020292029A0394E5
:101440001A6B42F001021A631A6B02F00102039256
:10145000039A04941A6B42F002021A631A6B02F0A8
:1014600002020492049A05941A6B42F008021A636D
:101470001A6B02F008020592059A06941A6B42F064
:1014800010021A631B6B03F010030693069B0A4DB0
:1014900022464021284601F0E3FA40230793012326
:1014A000089309940A9407A9284601F0EFF90DB0B2
:1014B00030BD00BF003802400010024070470000FD
:1014C00008B54021014801F0D1FA08BD00100240E2
:1014D00072B6FEE700B585B0002300930193029336
:1014E00003932548254A02604FF4803242608360AE
:1014F00001220261027680F82030C36220498162B5
:10150000C3600423C36180F83020426101F036FEDD
:1015100038BB0023009301220192029369461648CA
:1015200001F070FFF8B9012300930223019369468B
:10153000114801F067FFC0B9022300930323019310
:1015400069460D4801F05EFF88B903230093042328
:1015500001936946084801F055FF50B905B05DF8A0
:1015600004FBFFF7B5FFFFF7B3FFFFF7B1FFFFF78E
:10157000AFFFFFF7ADFF00BF3802002000200140A1
:101580000100000F08B50D480D4B036003234360B5
:1015900000238360C3604FF4202202614FF4801265
:1015A0004261037643768376C3760377437701F00F
:1015B000F1FF00B908BDFFF78BFF00BF0404002056
:1015C0000064004008B50A480A4B03604FF4E13359
:1015D000436000238360C36003610C224261836126
:1015E000C36102F04AF900B908BDFFF771FF00BFFF
:1015F0003C0100200048004010B596B00024129431
:101600001394149415941094119409940A940B94BF
:101610000C940D940E940F942022214601A8FEF7FD
:101620001FFE2948294B036044608460C823C360BF
:1016300004614461846100F0F5FB002837D14FF468
:101640008053129312A9204800F0F6FC002830D1F4
:101650001D4800F013FC00282DD100231093119396
:1016600010A9194800F068FD38BB602309930022D7
:101670000A920B920C920D920E920F9209A91248A7
:1016800000F060FCD8B90023019302930393049304
:1016900005934FF400520692089301A90A4800F0FE
:1016A0008FFD70B9084800F019FA16B010BDFFF7A9
:1016B0000FFFFFF70DFFFFF70BFFFFF709FFFFF726
:1016C00007FFFFF705FF00BF9C000020000001405E
:1016D00000B595B03022002108A8FEF7C1FD002317
:1016E000039304930593069307930193214A116C86
:1016F00041F080511164126C02F080520192019A03
:1017000002931D4B1A6842F480421A601B6803F46E
:1017100080430293029B092308934FF4803309937B
:1017200001230D9302230E934FF480020F920422A3
:101730001092A822119212930723139308A800F085
:1017400069FD98B90F2303930223049300230593A3
:101750004FF4A05306934FF480530793052103A839
:1017600000F0BEFF20B915B05DF804FBFFF7B0FE36
:10177000FFF7AEFE003802400070004010B584B0A4
:1017800001F018FCFFF7A4FFFFF71AFEFFF73AFE7F
:10179000FFF7A0FEFFF7F6FEFFF714FFFFF72CFFA1
:1017A00001F02EFC4FF480520E490F4801F012FD5B
:1017B0000C4B5A889988D8880C4C02900191009261
:1017C0001B880B4A64212046FEF7DCFD4FF0FF33F7
:1017D00064222146074802F07FF8642001F016FCDD
:1017E000E6E700BF2C04002038020020D4010020CE
:1017F000203A00083C010020FEE7FEE7FEE7FEE796
:10180000FEE770477047704708B501F0EDFB08BD73
:1018100008B5024801F050FA08BD00BFA802002038
:1018200008B5024801F048FA08BD00BF9C0000203E
:1018300082B0002100910B4B5A6C42F480425A64F2
:101840005A6C02F480420092009A01911A6C42F0A4
:1018500080521A641B6C03F080530193019B02B009
:10186000704700BF0038024070B58AB0002305936E
:101870000693079308930993026803F1804303F5E5
:1018800090339A4201D00AB070BD044600250195FC
:1018900003F58C335A6C42F480725A645A6C02F429
:1018A00080720192019A02951A6B42F004021A6347
:1018B0001A6B02F004020292029A03951A6B42F02C
:1018C00001021A631A6B02F001020392039A049553
:1018D0001A6B42F002021A631B6B03F002030493BB
:1018E000049B3F2305930326069605A9174800F09D
:1018F000CDFF7F2305930696079505A9144800F0B0
:10190000C5FF05960696079505A9124800F0BEFF8B
:101910001148124B036045608560C5604FF48063D9
:1019200003614FF4006343614FF4005383614FF44C
:101930008073C3610562456201F022F918B9064B54
:10194000A3639C639FE7FFF7C3FDF8E7000802402D
:101950000000024000040240A8020020106402407F
:1019600000B58BB000230593069307930893099362
:101970000368374A934205D0364A93422FD00BB0C2
:101980005DF804FB344A136801331360012B19D04E
:1019900000230193314B1A6B42F002021A631B6B56
:1019A00003F002030193019B4FF44073059302235C
:1019B0000693032308930923099305A9284800F0F7
:1019C00065FFDCE700230093244B1A6C42F00072A1
:1019D0001A641B6C03F000730093009BD8E700238C
:1019E00002931E4B1A6C42F080621A641B6C03F067
:1019F00080630293029B184A136801331360012B22
:101A000019D000230493154B1A6B42F002021A639B
:101A10001B6B03F002030493049B4FF440530593A4
:101A200002230693032308930923099305A90C486D
:101A300000F02CFFA3E700230393084B1A6C42F03D
:101A400000721A641B6C03F000730393039BD8E7C6
:101A50000064004000680040980000200038024008
:101A6000000402400268194B9A4200D0704710B53A
:101A700082B0044600230193154A516C41F00101E4
:101A80005164526C02F001020192019A1148124A0B
:101A900002604FF04062426040228260C3604FF4B7
:101AA000806202614FF4805242614FF48042826151
:101AB000C3610362436201F063F820B9054B6362BE
:101AC0009C6302B010BDFFF703FDF7E70000014083
:101AD000003802409C0000202864024000B587B016
:101AE00000230193029303930493059302680F4B21
:101AF0009A4202D007B05DF804FB002300930C4B20
:101B00001A6B42F001021A631B6B03F0010300938E
:101B1000009B4FF4807301930223029301230593EA
:101B200001A9044800F0B2FEE4E700BF0000014054
:101B30000038024000000240F0B589B00023039352
:101B4000049305930693079302681F4B9A4201D0B2
:101B500009B0F0BD0024009403F5F8331A6C42F488
:101B600080221A641A6C02F480220092009A019476
:101B70001A6B42F002021A631A6B02F0020201921F
:101B8000019A02941A6B42F008021A631B6B03F06D
:101B900008030293029B4FF4006303930227049708
:101BA000032606960725079503A9084800F06EFE50
:101BB0004FF480730393049705940696079503A941
:101BC000034800F063FEC3E7004800400004024001
:101BD000000C024030B4036A23F001030362056A7B
:101BE0004268846924F073040B681C4325F00205E5
:101BF0008B682B43104DA84203D005F58065A842A1
:101C000005D123F00803CD682B4323F004030A4DCC
:101C1000A84203D005F58065A84205D122F44072A0
:101C20004D6915438A692A43426084614A68426368
:101C3000036230BC704700BF0000014030B4036A4B
:101C400023F480730362036A4268C46924F0730456
:101C50000D682C4323F400738D6843EA0523124D6D
:101C6000A84203D005F58065A84206D123F400639D
:101C7000CD6843EA052323F480630B4DA84203D0CB
:101C800005F58065A84207D122F440524D6942EA29
:101C900005128D6942EA05124260C4614A68C26356
:101CA000036230BC704700BF0000014030B4036ADB
:101CB00023F480530362036A4468C26922F4E64253
:101CC0000D6842EA052223F400538D6843EA053388
:101CD000094DA84203D005F58065A84204D124F43B
:101CE00080444D6944EA85144460C2614A680264D4
:101CF000036230BC704700BF0000014010B4036AAB
:101D0000046A24F001040462846924F0F00444EAC3
:101D1000021223F00A030B43826103625DF8044B55
:101D2000704710B4036A23F0100303628469036AE6
:101D300024F4704444EA023223F0A00343EA01137E
:101D4000826103625DF8044B7047836823F070037F
:101D5000194341F007018160704770470368304ABA
:101D6000904212D0B0F1804F0FD0A2F57C42904249
:101D70000BD002F58062904207D002F5806290425B
:101D800003D002F57842904203D123F070034A68F1
:101D90001343234A90422AD0B0F1804F27D0A2F5B6
:101DA0007C42904223D002F5806290421FD002F51F
:101DB000806290421BD002F57842904217D002F523
:101DC0007052904213D002F5806290420FD002F51B
:101DD000806290420BD0A2F59832904207D002F573
:101DE0008062904203D002F58062904203D123F4D6
:101DF0004073CA68134323F080034A6913430360A6
:101E00008B68C3620B688362054B984203D003F56D
:101E10008063984201D10B690363012343617047DA
:101E20000000014040B310B5044690F83D30F3B1D6
:101E3000022384F83D30214651F8040BFFF78EFF52
:101E4000012384F8463084F83E3084F83F3084F82B
:101E5000403084F8413084F8423084F8433084F8CC
:101E6000443084F8453084F83D30002010BD80F8BF
:101E70003C30FFF7F7FDDBE70120704740B310B5BA
:101E8000044690F83D30F3B1022384F83D302146FA
:101E900051F8040BFFF762FF012384F8463084F801
:101EA0003E3084F83F3084F8403084F8413084F884
:101EB000423084F8433084F8443084F8453084F864
:101EC0003D30002010BD80F83C30FFF746FFDBE7D7
:101ED0000120704730B4036A23F010030362036AE1
:101EE0004468826922F4E6420D6842EA052223F042
:101EF00020038D6843EA0513114DA84203D005F570
:101F00008065A84206D123F08003CD6843EA05131B
:101F100023F040030A4DA84203D005F58065A8428E
:101F200007D124F440644D6944EA85048D6944EA8C
:101F30008504446082614A688263036230BC7047F2
:101F40000000014038B590F83C30012B66D00D46BA
:101F50000446012380F83C300C2A5DD8DFE802F00B
:101F6000075C5C5C1E5C5C5C335C5C5C470000682E
:101F7000FFF730FE2268936943F0080393612268FB
:101F8000936923F0040393612268936929690B43E1
:101F900093610020002384F83C3038BD0068FFF7CF
:101FA00099FF2268936943F40063936122689369FF
:101FB00023F48063936122689369296943EA0123CA
:101FC00093610020E6E70068FFF738FE2268D369D6
:101FD00043F00803D3612268D36923F00403D3617B
:101FE0002268D36929690B43D3610020D2E70068D6
:101FF000FFF75CFE2268D36943F40063D361226873
:10200000D36923F48063D3612268D369296943EAE1
:102010000123D3610020BDE70120BBE70220BCE71C
:1020200010B4846824F47F4442EA03230B4323431F
:1020300083605DF8044B704790F83C30012B79D0F9
:1020400010B50446012380F83C30022380F83D306F
:102050000268936823F47F4323F0770393600B684F
:10206000402B54D011D9702B39D023D8502B43D0CA
:10207000602B1DD1CA6849680068FFF752FE6021D5
:102080002068FFF762FE00200BE0102B4AD005D934
:10209000202B47D0302B45D0012002E0002B41D02F
:1020A0000120012384F83D30002384F83C3010BD2A
:1020B0000120F6E7B3F5805F3AD0B3F5005F0CD1AD
:1020C000CB684A6889680068FFF7AAFF22689368AE
:1020D00043F4804393600020E3E70120E1E7CB680D
:1020E0004A6889680068FFF79BFF2268936843F09D
:1020F000770393600020D4E7CA6849680068FFF757
:10210000FDFD50212068FFF720FE0020C9E7CA68C6
:1021100049680068FFF7F2FD40212068FFF715FECF
:102120000020BEE719462068FFF70FFE0020B8E741
:102130000020B6E70220704790F83C30012B3BD0DE
:1021400030B4012380F83C30022380F83D3003682E
:102150005C689D6824F070040A6822435A60036832
:10216000164A93421AD0B3F1804F17D0A2F57C42A1
:10217000934213D002F5806293420FD002F5806241
:1021800093420BD002F57842934207D002F5705289
:10219000934203D0A2F59432934204D125F08005F6
:1021A0004A6815439D60012380F83D30002380F884
:1021B0003C30184630BC7047022070470000014098
:1021C00090F83C30012B22D0012380F83C30CB68C2
:1021D00023F440738A68134323F480634A681343EB
:1021E00023F400630A68134323F480530A691343FA
:1021F00023F400534A69134323F48043CA69134309
:1022000002685364002380F83C301846704702206F
:1022100070470000002800F0DF8170B582B00446EE
:10222000036813F0010F3BD0A64B9B6803F00C032F
:10223000042B2CD0A34B9B6803F00C03082B21D05C
:102240006368B3F5803F4FD0B3F5A02F52D09D4BBC
:102250001A6822F480321A601A6822F480221A6006
:102260006368002B50D000F0CBFE0546954B1B68F1
:1022700013F4003F14D100F0C3FE401B6428F5D9CD
:102280000320B0E18F4B5B6813F4800FD8D08D4BE7
:102290001B6813F4003F03D06368002B00F09E819D
:1022A000236813F0020F54D0864B9B6813F00C0F79
:1022B0003ED0844B9B6803F00C03082B33D0E368BB
:1022C000002B67D0804B01221A6000F099FE054672
:1022D0007C4B1B6813F0020F53D100F091FE401BA2
:1022E0000228F5D903207EE1764A136843F480334F
:1022F0001360B5E7734B1A6842F480221A601A68BB
:1023000042F480321A60ABE700F07AFE05466D4B6E
:102310001B6813F4003FC3D000F072FE401B64281A
:10232000F5D903205FE1674B5B6813F4800FC6D1DA
:10233000644B1B6813F0020F03D0E368012B40F0DD
:102340004F81604A136823F0F803216943EAC1030F
:102350001360236813F0080F40D0636963B35B4BCD
:1023600001221A6000F04CFE0546564B5B6F13F0DD
:10237000020F33D100F044FE401B0228F5D90320A0
:1023800031E1504A136823F0F803216943EAC1039D
:102390001360DEE74C4B00221A6000F031FE054668
:1023A000484B1B6813F0020FD3D000F029FE401BEE
:1023B0000228F5D9032016E1444B00221A6000F0F0
:1023C0001FFE05463F4B5B6F13F0020F06D000F077
:1023D00017FE401B0228F5D9032004E1236813F0FF
:1023E000040F78D0374B1B6C13F0805F33D1002380
:1023F0000193344B1A6C42F080521A641B6C03F048
:1024000080530193019B0125314B1B6813F4807F9E
:1024100023D0A368012B34D0052B38D0294B1A6F59
:1024200022F001021A671A6F22F004021A67A368E9
:10243000002B36D000F0E4FD0646224B1B6F13F054
:10244000020F47D100F0DCFD801B41F28833984237
:10245000F3D90320C7E00025D6E71D4A136843F4EB
:102460008073136000F0CCFD0646194B1B6813F413
:10247000807FCED100F0C4FD801B0228F5D9032057
:10248000B1E0104A136F43F001031367CFE70D4B20
:102490001A6F42F004021A671A6F42F001021A67BB
:1024A000C5E700F0ADFD0646064B1B6F13F0020FAB
:1024B00010D000F0A5FD801B41F288339842F3D97B
:1024C000032090E00038024000004742800E47425F
:1024D00000700040EDB9A369002B00F08380494AE9
:1024E000926802F00C02082A51D0022B17D0464BFA
:1024F00000221A6000F084FD0446424B1B6813F072
:10250000007F42D000F07CFD001B0228F5D903209B
:1025100069E03C4A136C23F080531364DBE73A4BC9
:1025200000221A6000F06CFD0546364B1B6813F064
:10253000007F06D000F064FD401B0228F5D903207F
:1025400051E0E369226A1343626A43EA8213A26A92
:102550005208013A43EA0243E26A43EA0263294A23
:102560005360294B01221A6000F04AFD0446254BB6
:102570001B6813F0007F06D100F042FD001B02280B
:10258000F5D903202FE000202DE000202BE0012BC7
:102590002BD01C4B5B6803F48001E269914226D189
:1025A00003F03F02216A8A4223D1616A47F6C07272
:1025B0001A40B2EB811F1ED103F44031A26A5208C7
:1025C000013AB1EB024F18D103F07063E26AB3EB4A
:1025D000026F14D1002006E001207047012002E0C4
:1025E000012000E0002002B070BD0120FBE70120C7
:1025F000F9E70120F7E70120F5E70120F3E70120E3
:10260000F1E700BF0038024060004742314B9B6851
:1026100003F00C03042B58D0082B58D170B52D4B68
:102620005A6802F03F025B6813F4800F2AD0294BEE
:102630005868C0F388100546002643011B1A66EB54
:102640000604A10141EA93619801C01A61EB0401FB
:10265000CB0043EA5073C4001946601946EB0101F0
:102660004B0243EAD0534402204619463346FEF754
:1026700025FD184B5B68C3F3014301335B00B0FBDE
:10268000F3F070BD134B5868C0F388100546002660
:1026900043011B1A66EB0604A10141EA936198010C
:1026A000C01A61EB0401CB0043EA5073C400194621
:1026B000601946EB01018B0243EA905384022046E5
:1026C00019463346FEF7FAFCD3E703487047034840
:1026D000704700BF0038024000127A000024F40066
:1026E000002800F09B8070B50446504B1B6803F037
:1026F00007038B4208D2CBB24C4A1370136803F025
:1027000007038B4240F08C80236813F0020F17D030
:1027100013F0040F04D0464A936843F4E0539360E7
:10272000236813F0080F04D0414A936843F46043D0
:1027300093603F4A936823F0F003A06803439360DB
:102740000D46236813F0010F32D06368012B21D0AE
:102750009A1E012A25D9364A126812F0020F61D05A
:1027600033498A6822F0030213438B6000F048FC6F
:1027700006462F4B9B6803F00C036268B3EB820F95
:1027800016D000F03DFC801B41F288339842F0D90E
:10279000032042E0264A126812F4003FE0D10120F3
:1027A0003BE0234A126812F0007FD9D1012034E0C7
:1027B0001E4B1B6803F00703AB4207D9EAB21B4B61
:1027C0001A701B6803F00703AB422DD1236813F086
:1027D000040F06D0164A936823F4E053E1680B43D4
:1027E0009360236813F0080F07D0114A936823F40D
:1027F0006043216943EAC1039360FFF707FF0C4B75
:102800009B68C3F303130B4AD35CD8400A4B186090
:102810000A4B186800F0A8FB002070BD012070472B
:102820000120FAE70120F8E70120F6E7003C02402A
:1028300000380240503A00086C0000206800002078
:10284000014B1868704700BF6C00002008B5FFF707
:10285000F7FF044B9B68C3F38223034AD35CD84041
:1028600008BD00BF00380240603A000808B5FFF715
:10287000E7FF044B9B68C3F34233034AD35CD84061
:1028800008BD00BF00380240603A000800230F2B4B
:1028900000F2DC80F0B482B05DE086685F00032463
:1028A000BC4026EA0406CC68BC40344384604668D9
:1028B00026EA02064C68C4F300129A403243426092
:1028C00056E0DC08083450F8247003F00702960044
:1028D0000F22B24027EA02070A69B2403A4340F8A1
:1028E000242059E0072200E00022B2403A4302349B
:1028F000574E46F82420574A9468EA4302EA0406F1
:102900004F6817F4801F01D045EA0406514CA660B9
:10291000E46802EA04064F6817F4001F01D045EA94
:1029200004064C4CE660646802EA04064F6817F43B
:10293000003F01D045EA0406464C66602468224008
:102940004E6816F4803F01D045EA0402414C2260F3
:1029500001330F2B77D801229A400C6804EA020554
:10296000AA42F5D14C6804F00304013C012C94D92F
:102970004A6802F00302032A09D0C4685E000322F9
:10298000B24024EA02048A68B2402243C2604A6824
:1029900002F00302022A94D004685E000322B240CF
:1029A00024EA02044A6802F00302B24022430260B1
:1029B0004A6812F4403FCBD000220192264A546C60
:1029C00044F480445464526C02F480420192019AAF
:1029D0009C08A61C1E4A52F8267003F003029600BB
:1029E0000F22B24027EA02071C4A90423FF47CAF14
:1029F00002F5806290421AD002F58062904218D0AF
:102A000002F58062904216D002F58062904214D0A6
:102A100002F58062904212D002F58062904210D09E
:102A200002F5806290423FF45DAF08225DE701222B
:102A30005BE7022259E7032257E7042255E7052204
:102A400053E7062251E702B0F0BC7047704700BF61
:102A500000380140003C01400038024000000240C4
:102A60000AB181617047090481617047436901EAD5
:102A7000030221EA030141EA02418161704730B457
:102A800005682C6824F480242C60046863608368E3
:102A9000402B05D0036899600368DA6030BC70474A
:102AA00003689A600368D960F8E7000010B403680F
:102AB000D9B210390C4AA2FB014212090B4CA25C9C
:102AC000C2655F2909D923F47F7323F0030304331C
:102AD0008365806D5DF8044B704723F47F7323F0AA
:102AE00003038365F5E700BFABAAAAAA483A00082A
:102AF000836A826992B9012B0AD01BB1022B01D0E3
:102B000000207047C36A13F0807F28D100207047EF
:102B1000C36AB3F1C07F24D000207047B2F5005FD4
:102B200009D0022B25D9032B25D1C36A13F0807F4E
:102B300023D100207047032B03D8DFE803F01404EF
:102B4000140A00207047C36A13F0807F0DD1002063
:102B50007047C36AB3F1C07F09D0002070470120DD
:102B60007047012070470120704701207047012005
:102B70007047012070470020704701207047000017
:102B800070B5044600F03CFA002C5BD005460223E9
:102B900084F83530002384F834302268136823F039
:102BA0000103136023681A6812F0010F0AD000F0C5
:102BB00027FA401B0528F5D920236365032084F8F4
:102BC000350070BD1A68204810406168A2680A4349
:102BD000E1680A4321690A4361690A43A1690A431A
:102BE000E1690A43216A0A430243616A04291ED04B
:102BF0001A602668756925F00705636A1D43042B72
:102C000007D1A36A1D43E36A1BB12046FFF770FF9B
:102C100090B975612046FFF749FFE26D3F2393406D
:102C2000836000206065012384F83530C9E7E16ADC
:102C3000206B01430A43DBE740236365012084F8EE
:102C40003500BEE70120BCE73F8010F038B5856D48
:102C500090F83440012C2CD0012480F8344090F8B6
:102C60003540E4B2012C04D0002380F83430022037
:102C700038BD0446022084F83500002060652046F7
:102C8000FFF7FDFEE26D3F239340AB6022681368BF
:102C900043F016031360236C23B12268136843F0DA
:102CA000080313602268136843F0010313600020D7
:102CB000DEE70220DCE70000F0B583B00446002325
:102CC0000193724B1D68724BA3FB0535AD0A876DEE
:102CD0003E68C26D08239340334210D003681A68DF
:102CE00012F0040F0BD01A6822F004021A60C26DB1
:102CF00008239340BB60436D43F001034365E26DDD
:102D000001239340334209D02268526912F0800FA8
:102D100004D0BB60636D43F002036365E26D04237E
:102D20009340334209D02268126812F0020F04D097
:102D3000BB60636D43F004036365E26D1023934051
:102D4000334224D02268126812F0080F1FD0BB60F3
:102D500023681A6812F4802F0DD01B6813F4002F1B
:102D600004D1236C9BB12046984710E0A36C73B14B
:102D7000204698470BE01A6812F4807F03D11A6846
:102D800022F008021A60236C0BB120469847E26DCE
:102D900020239340334255D02268126812F0100F5E
:102DA00050D0BB6094F83530DBB2052B0ED02368D1
:102DB0001A6812F4802F33D01B6813F4002F2AD125
:102DC000636C002B3ED0204698473BE02268136896
:102DD00023F0160313602268536923F080035361C4
:102DE000236CA3B12268136823F008031360E26D1B
:102DF0003F239340BB60012384F83530002384F8DF
:102E00003430236D002B3FD0204698473CE0A36C24
:102E1000002BE7D1EBE7E36BA3B12046984711E025
:102E20001A6812F4807F09D11A6822F010021A6021
:102E3000012384F83530002384F83430E36B0BB180
:102E400020469847636DFBB1636D13F0010F17D0F7
:102E5000052384F835302268136823F001031360DA
:102E6000019B01330193AB4204D823681B6813F024
:102E7000010FF5D1012384F83530002384F8343074
:102E8000E36C0BB12046984703B0F0BD6C00002006
:102E9000B5814E1B074AD36823F4E0631B041B0C67
:102EA000000200F4E060184340F0BF6040F40030DE
:102EB000D060704700ED00E030B4174BDB68C3F31F
:102EC0000223C3F10704042C28BF04241D1D062D72
:102ED00001D9033B00E000234FF0FF3505FA04F46D
:102EE00021EA0401994005FA03F322EA0303194396
:102EF000002809DB0901C9B200F1604000F561401A
:102F000080F8001330BC704700F00F000901C9B20F
:102F1000024B1954F6E700BF00ED00E014ED00E0AD
:102F2000002807DB00F01F02400901239340024AFA
:102F300042F82030704700BF00E100E00138B0F1F6
:102F4000807F0AD2064B5860064AF02182F823108F
:102F50000020986007221A6070470120704700BF68
:102F600010E000E000ED00E010B504460E4B1878CC
:102F70004FF47A73B3FBF0F30C4A1068B0FBF3F034
:102F8000FFF7DCFF68B90F2C01D901200AE000220D
:102F900021464FF0FF30FFF78FFF054B1C600020EC
:102FA00000E0012010BD00BF640000206C00002084
:102FB0006800002008B50B4B1A6842F400721A60D2
:102FC0001A6842F480621A601A6842F480721A60C9
:102FD0000320FFF75FFF0F20FFF7C6FFFEF728FC77
:102FE000002008BD003C0240034A1168034B1B78D7
:102FF0000B441360704700BF54240020640000207D
:10300000014B1868704700BF5424002038B50446AF
:10301000FFF7F6FF0546B4F1FF3F02D0044B1B78E3
:103020001C44FFF7EDFF401BA042FAD338BD00BFA0
:1030300064000020034AD2F8883043F47003C2F8D9
:103040008830704700ED00E04A4B5A6822F4403265
:103050005A605A6841680A435A600268536823F408
:103060008073536002685368016943EA0123536027
:103070000268536823F040735360026853688168A4
:103080000B4353600268936823F400639360026803
:103090009368C1680B439360826A374B9A4257D05A
:1030A0000268936823F07063936002689368816A92
:1030B0000B4393600268936823F040539360026867
:1030C0009368C16A0B4393600268936823F002031C
:1030D000936002689368017E43EA4103936090F82D
:1030E0002030002B3FD00268536843F400635360E4
:1030F0000268536823F46043536001684B68426A76
:10310000013A43EA42334B600268D36A23F4700306
:10311000D3620168CB6AC269013A43EA0253CB62C7
:103120000268936823F4007393600268936890F8D0
:10313000301043EA412393600268936823F480636C
:10314000936002689368416943EA81239360704702
:103150000268936823F0706393600268936823F0B9
:1031600040539360B0E70268536823F400635360F0
:10317000CAE700BF002301400100000F38B310B5BB
:103180000446036C43B1236C13F0100F0BD00120E5
:10319000002384F83C3010BDFEF766FB0023636417
:1031A00084F83C30EFE7236C23F4885323F00203C8
:1031B00043F0020323642046FFF746FF00206064CB
:1031C000236C23F0030343F001032364E0E70120B1
:1031D0007047000030B583B00023019390F83C3075
:1031E000012B00F0AE80012380F83C3003689C681E
:1031F00014F0010F12D19C6844F001049C60544B00
:103200001C68544BA3FB0434A40C04EB4404019449
:10321000019C1CB1019C013C0194F9E70468A3687E
:1032200013F4807F03D0A36823F48073A360036842
:103230009C6814F0010F79D0046C24F4E06424F04D
:10324000010444F4807404645B6813F4806F05D057
:10325000036C23F4405343F480530364036C13F46E
:10326000805F38D0436C23F0060343641346044662
:10327000002280F83C20826B3748D063A26B37482D
:103280001064A26B3648D06422686FF02200106090
:103290002568686840F0806068602568A86840F428
:1032A0008070A86020680A4600F14C01A06BFFF70F
:1032B000CDFC2C4B5B6813F01F0F27D123682A4AE3
:1032C000934211D002F58072934207D0274A93426D
:1032D00014D0002033E000234364C7E702F50072F6
:1032E000526812F01F0FF1D19A6812F0405F2AD194
:1032F0009A6842F080429A60002020E002F58072D5
:10330000526812F0100FEFD0002018E02368164A20
:10331000934201D0002012E09A6812F0405F14D16D
:103320009A6842F080429A60002008E0036C43F003
:1033300010030364436C43F001034364002003B0B3
:1033400030BD0220FBE70020F9E70020F7E700BFCF
:103350006C00002083DE1B439333000871330008A8
:103360007D3300080023014000200140002201407D
:1033700008B5806BFEF7A2F808BD704708B5806BF2
:1033800040230364436C43F004034364FFF7F5FFF9
:1033900008BD08B5836B1A6C12F0500F26D11A6C59
:1033A00042F400721A641A68916811F0405F19D1F2
:1033B000197EB9B9D16A11F4700F03D0916811F474
:1033C000806F0FD1516821F0200151601A6C22F4F6
:1033D00080721A641A6C12F4805F03D11A6C42F086
:1033E00001021A641846FEF76BF808BD1A6C12F059
:1033F000100F03D19B6BDB6C9847F6E71846FFF77D
:10340000BCFFF2E730B482B00023019390F83C3067
:10341000012B00F0B680012380F83C300B68092BAB
:103420003ED90568EA689BB203EB43031E3B0724C1
:1034300004FA03F322EA0303EB600568EA688C6888
:103440000B8803EB43031E3B04FA03F31343EB60C7
:103450004B68062B3AD805686A6B03EB8303053B80
:103460001F2404FA03F322EA03036B6305686A6B03
:103470004B6803EB8303053B0C8804FA03F3134307
:103480006B630268404B9A4250D002683E4B9A42AE
:1034900055D0002380F83C30184602B030BC70474D
:1034A00005682A699BB203EB4303072404FA03F37C
:1034B00022EA03032B6105682A698C680B8803EBF9
:1034C000430304FA03F313432B61C1E70C2B16D813
:1034D00005682A6B03EB8303233B1F2404FA03F3E1
:1034E00022EA03032B6305682A6B4B6803EB830313
:1034F000233B0C8804FA03F313432B63C1E70568ED
:10350000EA6A03EB8303413B1F2404FA03F322EA34
:103510000303EB620568EA6A4B6803EB8303413BF4
:103520000C8804FA03F31343EB62AAE70B68122B2F
:10353000ABD1164A536843F480035360A5E70B6888
:10354000103B012BA5D8114A536843F40003536084
:103550000B68102B9DD10E4B1B6802F1467202F5D1
:103560002E3202F28332A2FB03239B0C03EB830374
:103570005A000192019B002B8BD0019B013B0193D0
:10358000F8E7022089E700BF002001400023014046
:103590006C000020002800F0A18038B5044690F8A7
:1035A0002030D3B12268136843F001031360FFF7A2
:1035B00027FD054623685A6812F0010F10D1FFF766
:1035C0001FFD401B0A28F5D9636A43F40033636288
:1035D000052384F82030012038BDFEF7C1F9E1E76A
:1035E0001A6822F002021A60FFF70AFD05462368F6
:1035F0005A6812F0020F0DD0FFF702FD401B0A2897
:10360000F5D9636A43F400336362052384F82030FC
:103610000120E1E7227E012A3DD01A6822F08002D3
:103620001A60637E012B3BD02268136823F04003AD
:103630001360A37E012B39D02268136823F0200386
:103640001360E37E012B37D02268136843F0100328
:103650001360237F012B35D02268136823F0080301
:103660001360637F012B33D02268136823F00403B7
:103670001360A368E268134322691343626913432A
:103680006268013A21681343CB6100206062012324
:1036900084F82030A0E71A6842F080021A60C0E780
:1036A0002268136843F040031360C2E7226813687E
:1036B00043F020031360C4E72268136823F010036B
:1036C0001360C6E72268136843F008031360C8E775
:1036D0002268136843F004031360CAE701207047AF
:1036E00070B504460268136923F44053C1680B4364
:1036F000136183680269134342691343C2691A4321
:103700000168CB6823F4164323F00C031343CB600A
:103710000268536923F4407381690B435361036862
:10372000344A934206D002F58062934202D0FFF7FA
:103730008DF801E0FFF79AF8E369B3F5004F2AD05E
:103740000026051846EB06012D1846EB0101CB00BB
:1037500043EA5573EA001546194663689A009B0FC1
:10376000281846EB0101FDF7A9FC234DA5FB00320B
:103770005109642303FB11031B013233A5FB03230F
:103780005B0903F0F00202EB011203F00F03216862
:1037900013448B6070BD0026051846EB06012D18FA
:1037A00046EB0101CB0043EA5573EA001546194682
:1037B00062683346921846EB0303281846EB010172
:1037C000FDF77CFC0C4DA5FB00325109642303FB83
:1037D0001103DB003233A5FB03235B095A0002F41B
:1037E000F87202EB011203F00703216813448B60A7
:1037F000D0E700BF001001401F85EB512DE9F041DB
:1038000004460F4616469846069D23681B6837EA0D
:1038100003030CBF01230023B3422BD1B5F1FF3FBB
:10382000F3D02DB1FFF7ECFBA0EB0800A842ECD9D8
:10383000226802F10C0353E8003F23F4D0730C32EA
:1038400042E800310029F3D1226802F1140353E861
:10385000003F23F00103143242E800310029F3D184
:10386000202384F83D3084F83E30002384F83C3037
:10387000032000E00020BDE8F08158B310B50446F5
:1038800090F83D300BB3242384F83D302268D36890
:1038900023F40053D3602046FFF722FF2268136908
:1038A00023F4904313612268536923F02A03536180
:1038B0002268D36843F40053D3600020206420239F
:1038C00084F83D3084F83E3010BD80F83C30FEF77F
:1038D00033F9D8E7012070472DE9F04182B01E4648
:1038E00090F83D30DBB2202B54D104460D46904673
:1038F000002954D0002A54D090F83C30012B52D0EB
:10390000012380F83C3000230364212380F83D30FC
:10391000FFF776FB0746A4F82480A4F82680A36866
:10392000B3F5805F05D04FF00008002384F83C30E9
:1039300011E0236913B14FF00008F6E7A84600250F
:10394000F3E738F8023B2268C3F308035360E38CC3
:10395000013B9BB2E384E38C9BB273B100963B4680
:10396000002280212046FFF749FFF0B9002DE8D062
:1039700015F8012B23685A60E9E700963B460022C0
:1039800040212046FFF73AFF034680B9202284F801
:103990003D2000E00223184602B0BDE8F08101237B
:1039A000F9E70123F7E70223F5E70323F3E703230E
:1039B000F1E70000DFF834D00D480E490E4A00232D
:1039C00002E0D458C4500433C4188C42F9D30B4AD3
:1039D0000B4C002301E013600432A242FBD3FFF73B
:1039E00029FBFCF719FCFDF7C9FE70470000022017
:1039F0000000002070000020B43A00087000002091
:103A00005C240020FEE70000F8B500BFF8BC08BC4D
:103A10009E467047F8B500BFF8BC08BC9E4670478C
:103A20005041303A2025642C205041313A20256401
:103A30002C205041323A2025642C205041333A202A
:103A400025640D0A0000000000061016000610167E
:103A5000000000000000000001020304060708093E
:103A60000000000001020304232D302B2000000081
:103A7000686C4C006566674546470000303132335C
:103A8000343536373839414243444546000000005A
:103A900030313233343536373839616263646566C4
:043AA0000000000022
:083AA40048D6FF7F010000007D
:043AAC00F901000814
:043AB000D101000838
:103AB40004000020000000000000000000000000DE
:103AC40000000000000000000000000000000000F2
:103AD40000000000000000000000000000000000E2
:103AE40000000000000000000000000000000000D2
:103AF40000000000000000000000000000000000C2
:103B040000000000000000000000000000000000B1
:103B14000000000001000000100000000024F40078
:04000005080039B501
:00000001FF
