:020000040800F2
:1000000000000220014700082513000827130008FC
:10001000291300082B1300082D130008000000000E
:100020000000000000000000000000002F13000886
:1000300031130008000000003313000835130008D6
:100040005147000851470008514700085147000830
:100050005147000851470008514700085147000820
:100060005147000851470008514700085147000810
:100070005147000851470008514700085147000800
:1000800051470008514700085147000851470008F0
:1000900051470008514700085147000851470008E0
:1000A00051470008514700085147000851470008D0
:1000B00051470008514700085147000851470008C0
:1000C00051470008514700085147000851470008B0
:1000D00051470008514700085147000851470008A0
:1000E0005147000851470008514700085147000890
:1000F0005147000851470008514700085147000880
:10010000514700085147000851470008514700086F
:10011000514700085147000851470008514700085F
:10012000514700085147000851470008514700084F
:10013000514700085147000851470008514700083F
:100140005147000851470008514700083D13000877
:10015000514700085147000851470008514700081F
:10016000514700085147000851470008514700080F
:10017000514700085147000851470008000000009F
:08018000514700085147000837
:1001C0000348044B834202D0034B03B118477047E6
:1001D0005801002058010020000000000548064991
:1001E000091A891001EBD171491002D0034B03B1F8
:1001F00018477047580100205801002000000000F7
:1002000010B5064C237843B9FFF7DAFF044B13B15E
:100210000448AFF300800123237010BD5801002073
:10022000000000005447000808B5044B1BB1044906
:100230000448AFF30080BDE80840CFE700000000AD
:100240005C0100205447000870B50D4E0D4D761B23
:10025000B61006D00024013455F8043B9847A64256
:10026000F9D1094E094D761B04F074FAB61006D088
:100270000024013455F8043B9847A642F9D170BDDB
:100280000C4800080C480008104800080C480008FA
:10029000F0B4860746D0541E002A3CD0CAB20346AA
:1002A00002E014F1FF3436D303F8012B9D07F8D197
:1002B000032C29D9CDB245EA05250F2C45EA054581
:1002C00033D9A4F11006360903F1200707EB06170E
:1002D00003F1100242E9045542E902551032BA42D4
:1002E000F8D1721C14F00C0F03EB021204F00F068D
:1002F00013D0331F23F003030433134442F8045B89
:100300009342FBD106F003042CB1C9B21C4403F89C
:10031000011B9C42FBD1F0BC704734461346002CB5
:10032000F3D1F8E714460346C2E71A462646E0E74B
:1003300008B430B5002A9CB0044635DB4FF4027394
:1003400002910691ADF8143020A918D0013A0B465D
:100350000492079201911F9A4FF6FF7502A9ADF81A
:10036000165000F0B7F9421C01DA8B232360029B80
:1003700000221A701CB0BDE8304001B070470B4637
:100380000492079201914FF6FF751F9AADF816502F
:1003900002A900F09FF9431C01DA8B2323601CB0F3
:1003A000BDE8304001B070478B2202604FF0FF3053
:1003B000F5E700BF0CB430B5204B00299DB01C6898
:1003C00037DB4FF4027302900690ADF8143021A889
:1003D00019D001390346209A0491079101904FF6F4
:1003E000FF7502A92046ADF8165000F073F9421CC3
:1003F00001DA8B232360029B00221A701DB0BDE836
:10040000304002B0704703460491079101904FF6C7
:10041000FF75209AADF8165002A9204600F05AF94F
:10042000431C01DA8B2323601DB0BDE8304002B0CD
:1004300070478B2323604FF0FF30F5E7000000206A
:1004400090F800F06DE9024520F007016FF0000C14
:1004500010F0070491F820F040F049804FF00004BC
:100460006FF00700D1E9002391F840F000F1080097
:1004700082FA4CF2A4FA8CF283FA4CF3A2FA8CF3CF
:100480004BBBD1E9022382FA4CF200F10800A4FA36
:100490008CF283FA4CF3A2FA8CF3E3B9D1E904238A
:1004A00082FA4CF200F10800A4FA8CF283FA4CF3C1
:1004B000A2FA8CF37BB9D1E9062301F1200182FA7B
:1004C0004CF200F10800A4FA8CF283FA4CF3A2FA81
:1004D0008CF3002BC6D0002A04BF04301A4612BA8F
:1004E000B2FA82F2FDE8024500EBD2007047D1E992
:1004F000002304F00305C4F100004FEAC50514F021
:10050000040F91F840F00CFA05F562EA05021CBFF1
:1005100063EA050362464FF00004A9E72DE9F047BE
:100520008E681D46AE420C460B68174636D880468C
:10053000888910F4906F0ED1354618462A46394600
:1005400000F0D0FCA2682368961B2B44A6602360B1
:100550000020BDE8F087D1E9041606EB4606A3EBC0
:10056000010906EBD6766B1C76104B44B34232463B
:1005700084BF1E463246430512D51146404600F060
:100580006FFD824600B34A46216900F011FCA38941
:1005900023F4906343F08003A38106E02E46CCE76A
:1005A000404600F0C1FD824650B1A6EB09020AEBBD
:1005B00009036661C4F810A02360A2602E46BCE760
:1005C0002169404600F0F6FC0C23C8F80030A389EE
:1005D00043F04003A3814FF0FF30BAE72DE9F04F1D
:1005E000936883B09046002B6DD017688D68824663
:1005F0000C460868083743E0A38913F4906F2ED0A7
:10060000D4E9041505EB4505A0EB010B05EBD57509
:100610000BEB06006D100130A8422A4684BF054648
:100620002A465B0536D51146504600F019FD0028D4
:100630003AD05A462169019000F0BAFBA289019B89
:1006400022F4906242F08002A281A5EB0B0203EB40
:100650000B00656123612060A2603546B3465A46AF
:10066000494600F03FFCD8F80830A2682068551BC6
:1006700058449E1BA5602060C8F808601EB3083768
:1006800057E90296AB46002EF9D0AE42B4D23546B9
:10069000B346E4E7504600F047FD03460028D4D1B6
:1006A0002169504600F086FC0C23CAF80030A3896B
:1006B000002243F040034FF0FF30A381C8E901223C
:1006C00003B0BDE8F08F0020C8F8040003B0BDE817
:1006D000F08F00BF2DE9F04F90468A899FB0140635
:1006E0008B46029003D50A69002A00F00B8105931E
:1006F00030238DF8323098F800308E4E00212022C1
:100700000B918DF831200127002B00F08480252BE0
:1007100000F0F680454603E0252B00F08680254654
:100720006B786C1C002BF7D1B4EB080A73D04246EF
:10073000534659460298FFF7F1FE01306BD00B9BF0
:100740006A7853440B93002A65D000234FF0FF32A0
:1007500001340693CDE908338DF85B301C93079282
:1007600005E0069A07FA03F313432C460693254641
:10077000052215F8011B304600F0CAFAAA46831B71
:100780000028EED1069BD90644BF20228DF85B20BD
:1007900021781A0744BF2B228DF85B202A2948D1E3
:1007A000059A11680432002905927EDB099161786F
:1007B000A51C2E2956D0604C0322204600F0A8FA32
:1007C000002868D0001B069B402404FA00F0034375
:1007D000069305F10108297858488DF83010062253
:1007E00000F096FA002866D0554B002B56D005AB8A
:1007F00000935A46534B029806A9AFF300808146F6
:10080000B9F1FF3F07D00B9B4B440B9398F8003096
:10081000002B7FF47CAFBBF80C305B0654BF0B9809
:100820004FF0FF301FB0BDE8F08FB4EB080A8CD05A
:100830007DE7A1F13002092A88BFA246B9D8099BF9
:1008400001E02C460135297803EB830302EB4303D7
:10085000A1F13002092AAA46F3D92E2904F1020592
:100860000993A8D19AF801102A292ED1059B9AF84C
:1008700002101A6807920433002A05930AF103054F
:100880000AF1020337DB2C4C032220469A4600F083
:100890003FFA002896D1A84655469CE7059B0733AA
:1008A00023F0070308330593ADE7494243F0020301
:1008B000099106937BE705AB00935A46214B0298BA
:1008C00006A900F0D7F881469AE7A1F1300200238B
:1008D000092A079301D923E05546697803EB83037E
:1008E00002EB4303A1F13002092A05F1010AF3D911
:1008F000023507935FE74FF0FF329A4607925AE7B7
:10090000444622E74021039300F0AAFB039BCBF867
:100910000000CBF8100030B14022CBF81420E6E6FE
:10092000AA46013547E7029A0C2313604FF0FF30C7
:1009300078E700BFD0470008D8470008DC47000828
:10094000000000001D0500082DE9F0470C46914607
:100950000A698968DDF820808A42B8BF0A46C9F86A
:10096000002094F8431006461F4611B10132C9F821
:100970000020236899065CD5D9F800200232C9F816
:100980000020236813F0060F19461DD1E1688A1A6A
:10099000002AD8BF194617DD04F1190A002505E021
:1009A000E368D9F800209B1AAB420CDD01235246C4
:1009B00039463046C047013005F10105F0D14FF00E
:1009C000FF30BDE8F087216894F84330003318BF4A
:1009D00001238A060AD5E1185A1C302081F8430009
:1009E000224494F8451082F84310023304F1430284
:1009F00039463046C0470130E1D02368A2682169FA
:100A000003F00603042B1DD08A4226DD4FF00009B7
:100A1000521A91441A34002501E04D451DDA012394
:100A2000224639463046C047013005F10105F4D170
:100A3000C5E713F0060F13D094F84330003318BF06
:100A40000123D3E7D9F80000E3688A42A3EB00034F
:100A500023EAE379DCDC002BDCDC0020BDE8F08756
:100A6000E168D9F800208A1A002AD8BF194693DC19
:100A7000AAE700BF2DE9F0430C46097E85B06E2938
:100A8000064617460C98984604F1430E6DD039D9A6
:100A9000732900F0F68044D9752900F00481782983
:100AA00040F0118178232268DFF858C284F845307D
:100AB0000168150651F8043B016040F1A180D1079F
:100AC00044BF42F020022260002B00F093801022ED
:100AD000002184F843106068A0600028C0F2C8803C
:100AE000216821F004012160002B40F0A380002840
:100AF00040F0C0807546082A00F0AC80AEEB0503DC
:100B0000236141E0632900F0E5801AD8002938D03C
:100B1000582940F0D88084F845102268DFF8E8C1F1
:100B2000C6E76F2900F0BF80702940F0CC802268B2
:100B3000DFF8D0C142F020027823226084F84530EB
:100B4000B6E7642902D0692940F0BD8022680368B5
:100B5000110603F1040557D5196805600B460029F5
:100B600059DBDFF8A4C10A22B5E70368226861698E
:100B70001D1D056015061B6802D4500600F1BD80DE
:100B80001960002375462361CDF800803B4603AA17
:100B900021463046FFF7D8FE013020D02A4623698F
:100BA00039463046C047013019D022680398E368BF
:100BB000920719D51A1A002A16DD04F11909002521
:100BC00004E0E36803981A1AAA420DDD01234A469D
:100BD00039463046C047013005F10105F1D14FF0EB
:100BE000FF3005B0BDE8F0839842B8BF184605B0A5
:100BF000BDE8F083226822F020022260102267E71D
:100C0000500648BF9BB25AE75106A5D5B3F900304C
:100C100005601946A3E76168A1602D200029C3F192
:100C2000000384F8430002DB22F004022260DFF8B4
:100C3000D8C00A22754600E00B46B3FBF2F102FB76
:100C4000113093421CF8000005F8010DF4D2082A77
:100C50007FF454AF2368DB077FF550AF62682369E8
:100C60009A423FF74BAF302305F8013C013D45E781
:100C7000002BDFD19CF8003084F8423004F14205AB
:100C800039E703686268191D01601D680021284664
:100C900000F03EF8002832D0401B60602061002345
:100CA00084F8433070E72268036812F0800F03F184
:100CB00004051AD01B6805606F290CBF08220A22A0
:100CC000DFF844C004E7012384F84210236104F1F3
:100CD0004205E4E703681A68191D0123016004F165
:100CE000420584F842202361D9E712F0400F0DBF7E
:100CF0001B6805601B880560DEE7198041E76068B6
:100D0000CCE700BFF8470008E447000800000000F7
:100D100001F0FF01102A2BDB10F0070F08D010F8AC
:100D2000013B013A8B422DD010F0070F42B3F6D1B0
:100D3000F0B441EA012141EA014122F007047FF0C9
:100D400000070023F0E80256083C85EA010586EA20
:100D5000010685FA47F5A3FA87F586FA47F6A5FA5C
:100D600087F68EB9EED1F0BC01F0FF0102F0070268
:100D700032B110F8013B013A83EA010313B1F8D113
:100D80000020704701387047002D06BF35460338F4
:100D9000073815F0010F07D1013015F4807F02BF2D
:100DA000013015F4C03F0130F0BC0138704700BF7E
:100DB000844641EA000313F003036DD1403A41D366
:100DC00051F8043B40F8043B51F8043B40F8043B25
:100DD00051F8043B40F8043B51F8043B40F8043B15
:100DE00051F8043B40F8043B51F8043B40F8043B05
:100DF00051F8043B40F8043B51F8043B40F8043BF5
:100E000051F8043B40F8043B51F8043B40F8043BE4
:100E100051F8043B40F8043B51F8043B40F8043BD4
:100E200051F8043B40F8043B51F8043B40F8043BC4
:100E300051F8043B40F8043B51F8043B40F8043BB4
:100E4000403ABDD2303211D351F8043B40F8043B54
:100E500051F8043B40F8043B51F8043B40F8043B94
:100E600051F8043B40F8043B103AEDD20C3205D364
:100E700051F8043B40F8043B043AF9D2043208D05C
:100E8000D2071CBF11F8013B00F8013B01D30B88CE
:100E900003806046704700BF082A13D38B078DD0AC
:100EA00010F003038AD0C3F10403D21ADB071CBF7E
:100EB00011F8013B00F8013B80D331F8023B20F8E8
:100EC000023B7BE7043AD9D3013A11F8013B00F821
:100ED000013BF9D20B7803704B7843708B788370A9
:100EE000604670478842F0B40DD98B1883420AD906
:100EF000841832B1224613F8014D02F8014D99428F
:100F0000F9D1F0BC70470F2A0ED80346541E002AB0
:100F1000F7D001340C44013B11F8012B03F8012FE9
:100F2000A142F9D1F0BC704740EA01039B073BD1D5
:100F3000A2F110073F0901F1200606EB071601F1A7
:100F4000100300F1100453F8105C44F8105C53F8DF
:100F50000C5C44F80C5C53F8085C44F8085C53F8EB
:100F6000045C44F8045C1033B34204F11004EAD189
:100F70007B1C1B0112F00C0F194402F00F050344F7
:100F800015D0043DAD0803EB850C1C1F0E4656F82A
:100F9000047B44F8047F6445F9D10135AD002B444E
:100FA000294402F00302B1E7541E0346B1E72A4682
:100FB000ACE700BF00293CD038B551F8043C0C1F09
:100FC000002BB8BFE418054600F0E6F8234B1A687A
:100FD0002AB1A2420DD921686018824223D06260F2
:100FE00028461C60BDE8384000F0D8B8A34203D8BA
:100FF0001A465368002BF9D111685018A04219D035
:1010000024D821686018834206D063605460284663
:10101000BDE8384000F0C2B8D3E900030144636082
:1010200021605460F3E7D2E900020144626021606C
:10103000D6E7704720680144501883421160E6D11A
:10104000D3E90003014453601160E0E70C232B60F7
:101050002846BDE8384000F0A1B800BF7401002068
:10106000F8B5CD1C25F0030508350C2D38BF0C252F
:10107000002D064633DBA94231D82A4F00F08CF808
:101080003A6852B113685B1B04D43FE023685B1BD2
:1010900029D522465468002CF8D1796800293BD024
:1010A0002946304600F066F8431C28D0C41C24F0C2
:1010B0000304A04205D0211A304600F05BF801304D
:1010C0001DD02560304600F069F804F10B0020F0D7
:1010D0000700231DC21A01D01B1AA350F8BD0C2211
:1010E00032600020F8BD0B2B05D8A242636811D0F6
:1010F0005360E7E7144623601C442560E2E70C23B5
:101100003046336000F04AF80020F8BD0B2BF1D8D0
:10111000536814463B60D5E7304600F02BF8786002
:10112000BEE700BF7401002009B3F8B51446CAB188
:1011300006460D4600F034F8A04202D32F4638464A
:10114000F8BD21463046FFF78BFF07460028F6D052
:1011500022462946FFF72CFE30462946FFF72AFF94
:101160003846F8BD2746FFF725FF3846F8BD11463B
:10117000FFF776BF38B5074C0023054608462360C5
:1011800000F016F8431C00D038BD2368002BFBD0BC
:101190002B6038BD001E0020704700BF704700BFA5
:1011A00051F8043C181F002BBCBF0B58C0187047E7
:1011B000044A05491368002B08BF0B461844106009
:1011C000184670477C010020081E002070B58AB0C8
:1011D0000025059506950795089509950195244CD8
:1011E000236B43F080032363236B03F0800301939D
:1011F000019B0295236B43F001032363236B03F0F0
:1012000001030293029B0395236B43F002032363C4
:10121000236B03F002030393039B0495236B43F0BA
:1012200008032363236B03F008030493049B114E0C
:101230002A464021304600F079F9402305930123E6
:10124000069307950323089305A9304600F084F818
:10125000236B43F002032363074B1A6842F42022F6
:101260001A605A6A42F099025A620AB070BD00BF11
:1012700000380240000002400004024070B592B005
:1012800040F6B83000F0B6F900F0D4FAFFF79EFF50
:101290000FE000F0A9F90095831B194A402102A82C
:1012A000FFF788F802A8FFF7CBF881B202A800F098
:1012B000A3FB4FF47A7000F09DF900F095F9064613
:1012C000002544F620639D42E3DC0E4C204600F0EE
:1012D000AFF94FF0FF31204600F04CFA204600F005
:1012E000A5FA0346084A402102A8FFF763F802A8BE
:1012F000FFF7A6F881B202A800F07EFB0135E0E717
:1013000074470008A40300206C47000808B572B6B3
:101310004021034800F010F9642000F06BF9F7E772
:1013200000000240FEE7FEE7FEE7FEE7FEE770474B
:101330007047704708B500F04BF908BD08B5024882
:1013400001F00BF808BD00BFF4180020014B18682D
:10135000704700BF6800002000230F2B00F2DC80E4
:10136000F0B482B05DE086685F000324BC4026EAEA
:101370000406CC68BC4034438460466826EA020612
:101380004C68C4F300129A403243426056E0DC08D5
:10139000083450F8247003F0070296000F22B24080
:1013A00027EA02070A69B2403A4340F8242059E08C
:1013B000072200E00022B2403A430234574E46F87A
:1013C0002420574A9468EA4302EA04064F6817F457
:1013D000801F01D045EA0406514CA660E46802EA89
:1013E00004064F6817F4001F01D045EA04064C4C70
:1013F000E660646802EA04064F6817F4003F01D013
:1014000045EA0406464C6660246822404E6816F49D
:10141000803F01D045EA0402414C226001330F2B8A
:1014200077D801229A400C6804EA0205AA42F5D155
:101430004C6804F00304013C012C94D94A6802F082
:101440000302032A09D0C4685E000322B24024EAE2
:1014500002048A68B2402243C2604A6802F0030272
:10146000022A94D004685E000322B24024EA0204F7
:101470004A6802F00302B240224302604A6812F452
:10148000403FCBD000220192264A546C44F4804461
:101490005464526C02F480420192019A9C08A61C8A
:1014A0001E4A52F8267003F0030296000F22B24043
:1014B00027EA02071C4A90423FF47CAF02F58062A3
:1014C00090421AD002F58062904218D002F58062F4
:1014D000904216D002F58062904214D002F58062EC
:1014E000904212D002F58062904210D002F58062E4
:1014F00090423FF45DAF08225DE701225BE70222E4
:1015000059E7032257E7042255E7052253E706224D
:1015100051E702B0F0BC7047704700BF003801408F
:10152000003C014000380240000002400AB18161E5
:101530007047090481617047436901EA030221EAA7
:10154000030141EA024181617047000030B4174B4A
:10155000DB68C3F30223C3F10704042C28BF04246F
:101560001D1D062D01D9033B00E000234FF0FF3580
:1015700005FA04F421EA0401994005FA03F322EA8A
:1015800003031943002809DB0901C9B200F16040D7
:1015900000F5614080F8001330BC704700F00F0088
:1015A0000901C9B2024B1954F6E700BF00ED00E093
:1015B00014ED00E0002807DB00F01F0240090123C2
:1015C0009340024A42F82030704700BF00E100E03B
:1015D000034A1168034B1B780B441360704700BF2C
:1015E0001404002064000020014B1868704700BFFD
:1015F0001404002038B50446FFF7F6FF0546B4F1A1
:10160000FF3F02D0044B1B781C44FFF7EDFF401B4B
:10161000A042FAD338BD00BF64000020034AD2F8CC
:10162000883043F47003C2F88830704700ED00E062
:1016300082B00023019390F83C30012B00F08980A8
:10164000012380F83C3003689A6812F0010F12D130
:101650009A6842F001029A60414B1B68414AA2FB22
:1016600003239B0C03EB43030193019B1BB1019BE1
:10167000013B0193F9E70268936813F0010F5DD015
:10168000036C23F4E06323F0010343F480730364E9
:10169000536813F4806F05D0036C23F4405343F474
:1016A00080530364036C13F4805F1CD0436C23F0FD
:1016B00006034364002380F83C3003686FF0220285
:1016C0001A60294B5B6813F01F0F27D10368274A64
:1016D000934211D002F58072934207D0244A93427C
:1016E00014D0002033E000234364E3E702F50072E6
:1016F000526812F01F0FF1D19A6812F0405F2AD1A0
:101700009A6842F080429A60002020E002F58072E0
:10171000526812F0100FEFD0002018E00368134A4F
:10172000934201D0002012E09A6812F0405F14D179
:101730009A6842F080429A60002008E0036C43F00F
:1017400010030364436C43F001034364002002B0C0
:1017500070470220FBE70020F9E70020F7E700BF11
:101760006800002083DE1B4300230140002001406D
:101770000022014003689A6812F4806F03D09B68CE
:1017800013F4807F1CD170B50D460446FFF72CFF83
:10179000064623681A6812F0020F20D1B5F1FF3F08
:1017A000F7D0B5B923681B6813F0020FF1D1236C91
:1017B00043F004032364002384F83C30032032E028
:1017C000036C43F020030364002380F83C300120C5
:1017D0007047FFF709FF801BA842DAD9E2E76FF0F4
:1017E00012021A60236C43F40073236423689A681E
:1017F00012F0405F16D1207EB0B9DA6A12F4700F91
:1018000003D09B6813F4806F0DD1236C23F4807395
:101810002364236C13F4805F05D1236C43F0010330
:10182000236400E0002070BD0020FCE70368D86C52
:101830007047000008B500220F49104801F0E4FE8F
:1018400070B90F490D4801F0F6FE60B90D490B481B
:1018500002F0F7FE50B9094801F007FF48B908BD8A
:10186000FFF754FDEDE7FFF751FDEFE7FFF74EFD02
:10187000F1E7FFF74BFDF2E76C00002018040020B1
:10188000D0000020BC00002012230B8000487047CD
:101890008800002004230B80004870479C00002033
:1018A0000023934216D230B40BE0373401F81340D2
:1018B00000015C00013400250D550133DBB2934279
:1018C00006D2040F092CF0D8303401F81340EFE7AA
:1018D00030BC70477047000038B50A4B18680433B5
:1018E0001C6804331B68C01800D138BD064D08229F
:1018F000A91CFFF7D5FF042205F112012046FFF7CE
:10190000CFFFF2E7107AFF1FA000002008B51A23CE
:101910000B80FFF7E1FF014808BD00BFA0000020D9
:1019200008B50A4628B90549054802F00AFC0348EB
:1019300008BD0249024802F004FCF8E7F406002062
:10194000C847000810B5044C0A462146034802F077
:10195000F8FB204610BD00BFF4060020BC4700087D
:1019600008B50A4628B90549054802F0EAFB0348CC
:1019700008BD0249024802F0E4FBF8E7F406002043
:10198000A047000808B50A4628B90549054802F0ED
:10199000D8FB034808BD0249024802F0D2FBF8E731
:1019A000F4060020AC470008002070470020704774
:1019B0000020704710B5054C0146204602F05AFE43
:1019C000204602F080FE002010BD00BF1804002059
:1019D00010B5064C00220649204602F03DFE05499E
:1019E000204602F047FE002010BD00BF1804002072
:1019F000F4100020F4080020094BD3F8BC32D3F8CF
:101A000014320BB10120704710B50A460146044C50
:101A1000204602F021FE204602F038FE10BD00BF35
:101A20001804002030B589B0002303930493059374
:101A3000069307930368B3F1A04F01D009B030BDFE
:101A400000250195164C236B43F001032363236BA0
:101A500003F001030193019B4FF4C053039302234E
:101A60000493032306930A23079303A90D48FFF762
:101A700073FC636B43F0800363630295636C43F410
:101A800080436364636C03F480430293029B2A46A1
:101A900029464320FFF75AFD4320FFF78BFDCDE792
:101AA000003802400000024008B500F2C441D0F8FE
:101AB000080501F0F2FD08BD08B501EBC102930075
:101AC0000344D3F88C22D0F8080501F0B6FE08BD17
:101AD00008B501EBC10293000344DA6CD0F80805A5
:101AE00001F017FF08BD08B5D0F8080501F04EFE5B
:101AF00008BD10B50446C3683BB1022B01D10121DA
:101B000004E0FFF703FC012100E00021D4F8080500
:101B100001F022FED4F8080501F0ECFD10BD000034
:101B200010B50446D0F8080501F019FE2268D2F875
:101B3000003E43F00103C2F8003E236A23B1034A8A
:101B4000136943F00603136110BD00BF00ED00E010
:101B500008B5D0F8080501F00CFE08BD08B5D0F8AE
:101B6000080501F03BFE08BD08B5D0F8080501F0F6
:101B70001EFE08BD08B5D0F8080501F046FE08BDF8
:101B800008B5D0F8080501F042FE08BD03780BB196
:101B90000020704710B503461548C0F80835C3F853
:101BA000C8024FF0A0430360042343600222C260D6
:101BB000002303618261C36103624362C362036302
:101BC00000F0F1F880B90A4C8021204600F0DFFED9
:101BD00040220021204600F0B6FE8022012120464E
:101BE00000F0B1FE002010BDFFF790FBEBE700BF57
:101BF000F4180020D0F8C83211F0800F08D101F09D
:101C00007F0101EBC1018A00134493F87E02704703
:101C100001F07F0101EBC1018A00134493F83E00FB
:101C2000704708B5D0F8C80200F0D2FA08BD00002D
:101C300000487047800100207047032805D8DFE87E
:101C400000F005040205012070470320704708B525
:101C5000D0F8C80200F038F9FFF7EFFF08BD10B563
:101C60001C4613462246D0F8C80200F00DFAFFF7D2
:101C7000E4FF10BD08B5D0F8C80200F045FAFFF740
:101C8000DCFF08BD08B5D0F8C80200F0D4FAFFF7B1
:101C9000D4FF08BD08B5D0F8C80200F00DFBFFF76F
:101CA000CCFF08BD08B5D0F8C80200F0D9F9FFF79D
:101CB000C4FF08BD08B5D0F8C80200F092FAFFF7DB
:101CC000BCFF08BD08B5D0F8C80200F053FAFFF712
:101CD000B4FF08BD2DE9F04782B0D0F80080CA00FB
:101CE0000A4493000344DA6D5B6D9A4255D8C146AD
:101CF0009B1A01EBC104A2000244926C9A4200D3E9
:101D00001A460C46074602F1030A4FEA9A0A15E002
:101D100006F1030A4FEA9A0AE30023449D003D447A
:101D2000E96C3B7C0093B3B2E2B2404601F0F9F9B2
:101D3000EB6C3344EB64EB6D1E44EE6509EB44132E
:101D400003F510639B699BB2534512D3E300234410
:101D50009A003A44D16D536D99420AD24BB15B1A45
:101D600004EBC4018A003A44966C9E42D0D31E46CE
:101D7000CEE7E3002344980007447A6DFB6D9A4256
:101D80000FD804F00F040123A340D8F8344824EA04
:101D90000304C8F83448002000E0012002B0BDE888
:101DA000F0870020FAE7F0B58BB0002800F08A80B9
:101DB0000546046890F8BD342BB3032385F8BD3481
:101DC000E36B13F4807F01D100232B61286800F0BE
:101DD000CDFE2C4654F8107B6E460FCC0FC60FCCB0
:101DE0000FC694E8030086E803002B1D0ECB38468F
:101DF00000F0FAFD044658B1022385F8BD340124F1
:101E000020460BB0F0BD80F8BC34FFF70BFED4E7E2
:101E10000021286801F087FB23466868834216D2B8
:101E2000D900C81882002A44012082F83D0082F8B7
:101E30003C30A2F84430002082F840009064D06426
:101E4000CA189100294448650133DBB2E5E7A04296
:101E500016D9E1000A1993002B44002283F87D2251
:101E600083F87C4283F88022C3F88822C3F88C224E
:101E70000B1999002944C1F894220134E4B2E6E731
:101E80002C4654F8107B6E460FCC0FC60FCC0FC6F5
:101E900094E8030086E803002B1D0ECB384600F0C3
:101EA000C1FE044620B1022385F8BD340124A7E712
:101EB000002385F83830012385F8BD34286801F007
:101EC000EFFA9DE701249BE7026890F8BC34012BF0
:101ED00019D010B5012380F8BC34836A012B0AD0D5
:101EE0000446006800F03CFE206801F0CBFA0020B8
:101EF00084F8BC0410BD8369012BF1D0936B43F4CB
:101F000080339363ECE702207047000070B504460D
:101F10000D460068066C00EB411303F530639A68C8
:101F20002169012911D038498E4256D03DB905EBBF
:101F3000C50293002344D3F89432002B5ED0E9B25B
:101F40002046FFF7B9FD002070BD12F0080F09D040
:101F50002E498E42F7D912F4004FF4D04FF40042CC
:101F60009A60F0E712F0200F02D020229A60EAE790
:101F700012F0280FE7D125498E4206D912F4004FFE
:101F800003D04FF400429A60DDE7E90029448A005B
:101F90002244D2F898121B69C3F31203CB1AC2F879
:101FA0009C327DB905EBC5018A002244D2F8942207
:101FB0006AB1E90029448A002244D2F88C120B4409
:101FC000C2F88C32E9B22046FFF776FDBBE704F297
:101FD000C442012101F0E8FAF4E712F4004F03D003
:101FE0004FF400429A60AEE712F0200F01D0202299
:101FF0009A60E9B22046FFF75FFDA4E704F2C4420D
:10200000002101F0D1FA9AE70A31544F0A30544FB7
:1020100038B5044603681D6C03EB4111D1F8082B59
:102020000E4B9D4207D901F5306112F4004F02D0EA
:102030004FF400438B602046FFF736FD074B9D426F
:1020400002D92369012B01D0002038BD04F2C4421B
:102050000121206801F0A8FAF6E700BF0A30544FCA
:1020600090F8BC34012B0DD010B50446012380F844
:10207000BC3480F83810006801F0F4F9002084F8CE
:10208000BC0410BD02207047F8B511F0800F27D1B5
:1020900001F00F05EE007719BC00274604F51E7409
:1020A000044404340744002587F87D5201F00F01F1
:1020B0002170E2602371627802B12181022B1ED06F
:1020C00090F8BC34012B1DD00546012380F8BC34A8
:1020D0002146006800F07DFE002085F8BC04F8BDB4
:1020E00001F00F06F500AF19BC0027463834044450
:1020F00004343E460644012586F83D50D6E70023C9
:102100006371DDE70220EAE738B511F0800F20D1D6
:1021100001F00F04E2001519AB001D4603F51E7314
:10212000034404330544002285F87D2201F00F01A9
:10213000197090F8BC24012A1AD00446012280F8B4
:10214000BC241946006800F08FFE002084F8BC040F
:1021500038BD01F00F04E2001519AB001D463833FD
:10216000034404332C460444012284F83D20DDE777
:102170000220EDE770B501F00F05EE0071198C003B
:1021800004F51E740444211D2E44B4000444C4F814
:102190008C22C4F894320023C4F89C3284F87D3237
:1021A00084F87C520369012B06D065B9DAB2006865
:1021B00000F0C8FE002070BD05EBC506B400044465
:1021C000C4F89022F1E7DAB2006800F0BFFFF1E74F
:1021D00001F00F0101EBC1018B001844D0F89C0203
:1021E000704770B501F00F05EE0071198C0038349E
:1021F0000444211D2E44B4000444E26463650023BA
:10220000E365012384F83D3084F83C500369012BD9
:1022100006D05DB9DAB2006800F094FE002070BD0F
:1022200005EBC506B40004442265F2E7DAB20068A3
:1022300000F08CFFF2E738B501F00F0543689D42CE
:1022400036D811F0800F20D1CA005418A3001C46C4
:1022500003F51E730344043322460244002182F82E
:102260007D1201229A701D7090F8BC24012A21D0A1
:102270000446012280F8BC241946006801F097F852
:102280007DB1002084F8BC0438BDEA0051198B00F0
:1022900019463833034404330144012281F83D20B8
:1022A000DFE704F2C442217C206801F07DF9E8E711
:1022B0000120E9E70220E7E710B501F00F044368C9
:1022C0009C422CD811F0800F1DD1E3001A19910007
:1022D0000A4601F51E71014404310244002382F8CC
:1022E0007D3200238B700C7090F8BC34012B18D019
:1022F0000446012380F8BC34006801F085F8002012
:1023000084F8BC0410BDE3001A1991000A46383164
:10231000014404310244012382F83D30E1E7012009
:10232000F0E70220EEE708B511F0800F0CD101F0C4
:102330000F0303EBC303990001F51E71014404313F
:10234000006800F08FFE08BD01F00F0303EBC3032C
:102350009900383101440431F2E72DE9F04F83B0A0
:1023600004460668304601F0DAF810B103B0BDE863
:10237000F08F35460746206801F0A0F80028F5D018
:1023800006F5006ADAF80830C3F30D23C4F8FC340C
:10239000206801F093F810F0020F04D0226853690E
:1023A00003F002035361206801F088F810F0100F69
:1023B00013D02268936923F010039361D6F820802C
:1023C00008F00F09C8F34343022B4CD0062B71D001
:1023D0002268936943F010039361206801F06EF85E
:1023E00010F4002F7AD1206801F068F810F4802FE3
:1023F00040F0E580206801F061F80028C0F26A81B1
:10240000206801F05BF810F4006F0AD0DAF80830A9
:1024100013F0010F40F078812268536903F40063E0
:102420005361206801F04AF810F4805F40F0708139
:10243000206801F043F810F4005F40F0C781206885
:1024400001F03CF810F0080F40F0D881206801F04E
:1024500035F810F0800F00F0EB81B36923F08003B2
:10246000B3610127D8E147F6F07318EA030FAFD044
:102470004FEA18184FEAC90301934B444FEA830B04
:10248000A344C8F30A02DBF88C12304600F06AFF5E
:10249000C8F30A08DBF88C324344CBF88C32019A3B
:1024A00091444FEA89032344D3F89C324344CBF848
:1024B0009C328DE7082204F2C441304600F052FFFE
:1024C000C8F30A184FEAC90303EB09018A00224442
:1024D000D2F89C324344C2F89C3279E7206800F07D
:1024E000F1FF8046B94635E005EB49130122C3F8F8
:1024F000082B49462046FFF709FD3DE005EB49134F
:102500000822C3F8082B49462046FFF781FD36E034
:1025100009EBC9029300234493F87F32012B44D086
:1025200005EB49130222C3F8082B1BF0200F04D03F
:1025300005EB49132022C3F8082B1BF4005F05D0DC
:1025400005EB49134FF40052C3F8082B09F10109B8
:102550004FEA5808B8F1000F3FF445AF18F0010FEB
:10256000F4D05FFA89F301931946206800F0BAFFAE
:10257000834610F0010FB7D11BF0080FBED11BF03E
:10258000100F04D005EB49131022C3F8082B1BF0E1
:10259000020FCAD0736913F0800FB9D0DAF8043093
:1025A00043F48063CAF80430B2E793002344002266
:1025B00083F87F2201992046FFF7D0FAB0E7206820
:1025C00000F088FF8046B94625E001992046FFF7D4
:1025D0007FFA1BF0080F04D005EB49130822C3F85B
:1025E00008291BF0100F04D005EB49131022C3F883
:1025F00008291BF0400F04D005EB49134022C3F813
:1026000008291BF0020F44D11BF0800F5DD109F1A6
:1026100001094FEA5808B8F1000F3FF4EBAE18F08B
:10262000010FF4D05FFA89F301931946206800F096
:1026300062FF834610F0010FCBD009F00F03012198
:1026400001FA03F2DAF8343023EA0203CAF834302C
:1026500005EB4913C3F8081923698B42B5D14FEA3A
:10266000C9024A4493002344996CDA6C0A44DA6440
:10267000B9F1000FA9D109EBC902930023445B6DA6
:10268000002BA2D104F2C4420121206800F08CFF8B
:102690009BE74946304600F06FFA09EBC902930008
:1026A000234493F83F30012B05D005EB4913022258
:1026B000C3F80829A8E793002344002283F83F20A9
:1026C00001992046FFF750FAEFE749462046FFF709
:1026D00001FB9CE7DAF8043023F00103CAF8043068
:1026E00094F8F434012B08D02046FFF731FA226821
:1026F000536903F00043536182E6002184F8F41427
:10270000204600F048F9F2E72046FFF709FA83E691
:10271000DAF8043023F00103CAF8043010212068ED
:1027200000F02AFA1AE005EB47134FF67F31C3F8A1
:102730000819D3F8002922F40012C3F80029C3F8BD
:10274000081BD3F8002B22F40012C3F8002BD3F897
:10275000002B42F00062C3F8002B01376368BB42D4
:10276000E1D8DAF81C3043F00113CAF81C30236BAF
:10277000EBB1DAF8843043F00B03CAF88430DAF8AE
:10278000443043F00B03CAF84430D6F8003823F441
:10279000FE63C6F8003804F2C442217C206800F0D1
:1027A00003FF2268536903F48053536140E6DAF86B
:1027B000143043F4005343F02B03CAF81430DAF812
:1027C000103043F00B03CAF81030DEE7206800F049
:1027D000DBFE206800F0ECFAE0602768FEF7B6FD4B
:1027E000227B0146384600F045F92046FFF781F983
:1027F0002268536903F40053536120E62046FFF733
:1028000072F92268536903F0080353611EE6F9B2B6
:102810002046FFF788FD01376368BB4208D907EB04
:10282000C7029300234493F87F32012BF3D1EEE7E4
:10283000206800F043FE10F4801F3AD1206800F0B9
:102840003DFE10F4001F6FD1206800F037FE10F03D
:10285000804F6BD1206800F031FE10F0040F3FF480
:1028600085AD23685D6815F0040F68D12268536850
:102870002B4353607AE501376368BB421BD905EBF4
:102880004713D3F8001907EBC7029300234493F8CA
:102890004030012BEFD10029EDDA930023440122CF
:1028A00083F83F2067F07F01C9B22046FFF73BFD68
:1028B000E1E70127E0E72268536903F480135361DD
:1028C000BCE7013362689A4228D905EB4312D2F87B
:1028D000000B03EBC3018A00224492F88022012AF4
:1028E000EFD10028EDDA00F48030D4F8FC2402F0B7
:1028F00001029042E5D18A002244012182F87F1230
:10290000B26942F08002B261726912F0800FD8D1D0
:10291000DAF8043043F40073CAF8043022685369CB
:1029200003F4001353618FE70123CBE72046FFF741
:1029300021F92268536903F0804353618AE72046F6
:10294000FFF71EF992E730B40468606A29B940EADB
:102950000240A062002030BC70470D46A36A00EB25
:1029600013400023691E8B4209D203F1400104EB9E
:102970008101496800EB11400133DBB2F2E740EA24
:10298000024005F13F0104EB81014860E2E7036882
:10299000596200207047704782B000230193019B69
:1029A00001330193019A0F4B9A4215D80369002B0A
:1029B000F5DA00230193036943F001030361019BEE
:1029C00001330193019A074B9A4208D8036913F027
:1029D000010FF4D1002000E0032002B07047032073
:1029E000FBE700BF400D030084B010B5044603A808
:1029F00080E80E00089B012B1FD1A36B23F48033CA
:102A0000A363E36823F4840323F04003E360E368F3
:102A100023F44013E3600F9B012B09D02046FFF7FE
:102A2000BBFF069B012B1BD0BDE8104004B07047D4
:102A3000E36843F48013E360F0E7E36843F04003A6
:102A4000E3602046FFF7A8FF0C9B23B9A36B43F478
:102A50008033A363E5E7A36B23F48033A363E0E74C
:102A6000A36843F00603A360A36843F02003A360B8
:102A7000DAE70000022A0AD00921C26822F4705263
:102A8000C260C36843EA8123C360002070472A4BB9
:102A90000B442A4A93423DD9294B0B44294A93427D
:102AA0003AD9A1F57403A3F51053274A934235D9B7
:102AB000A1F18373A3F5E74302F5C332A032934239
:102AC0002ED9224B0B44224A93422BD9214B0B4443
:102AD00002F5922202F57872934225D91E4B0B44DF
:102AE00002F5C32202F5207293421FD9A1F1B773F8
:102AF000A3F5585302F5B71202F55872934217D94D
:102B0000164B0B4402F5122202F5F862934211D8DB
:102B10000721B2E70F21B0E70E21AEE70D21ACE7A8
:102B20000C21AAE70B21A8E70A21A6E70921A4E7BF
:102B30000821A2E70621A0E7405327FFFF340C003D
:102B4000401E1BFF3F420F007F4F120060B6E5FEA4
:102B50005FE3160000D3CEFEC05BB3FEE05459FE27
:102B6000836843F00103836000207047836823F08B
:102B7000010383600020704782B000230193019B12
:102B800001330193019A0F4B9A4215D80369002B28
:102B9000F5DA00230193890141F020010161019BD5
:102BA00001330193019A074B9A4208D8036913F045
:102BB000200FF4D1002000E0032002B07047032072
:102BC000FBE700BF400D030082B000230193019B8F
:102BD00001330193019A0E4B9A4213D80369002BDB
:102BE000F5DA0023019310230361019B0133019364
:102BF000019A074B9A4208D8036913F0100FF4D1D9
:102C0000002000E0032002B070470320FBE700BF74
:102C1000400D0300D0F800381943C0F80018002018
:102C20007047000084B0F8B5044607A880E80E009D
:102C3000254600230E2B07D803F1400204EB820245
:102C4000002151600133F5E7119B23BBD4F8043810
:102C500043F00203C4F80438A36B43F40013A363E6
:102C6000A36B23F40023A363A36B23F48023A36348
:102C70000023C4F8003E04F50066D4F80038C4F818
:102C800000380C9B012B14D1099B6BB90021204605
:102C9000FFF7C0FF11E0A36B23F40013A363A36B42
:102CA00043F40023A363E3E701212046FFF7B2FFCB
:102CB00003E003212046FFF7ADFF10212046FFF778
:102CC0005BFF074600B101272046FFF77DFF00B1FB
:102CD0000127002333617361F3610AE0C3B94FF048
:102CE0000060C2F8000900220A614FF67F328A6054
:102CF0000133079A9A4210D905EB431202F510618D
:102D0000D2F800090028E9DB0020C2F80009EAE750
:102D10004FF09040C2F80009E5E700230AE0C3B98C
:102D20004FF00060C2F8000B00220A614FF67F32BC
:102D30008A600133079A9A4210D905EB431202F5D3
:102D40003061D2F8000B0028E9DB0020C2F8000B4C
:102D5000EAE74FF09040C2F8000BE5E7336923F44F
:102D6000807333610023A3616FF0804363610A9B2A
:102D70001BB9A36943F01003A361A2690B4B134372
:102D8000A3610D9B1BB1A36943F00803A361119BD1
:102D9000012B04D03846BDE8F84004B07047A36961
:102DA00043F0804343F00403A361F3E700383C8021
:102DB000D0F8083813F0060307D0022B07D0062BF3
:102DC00001D00F207047022070470020704702207A
:102DD000704770B40B784A78012A22D0D0F81C28AA
:102DE00003F00F060124B44042EA0442C0F81C2854
:102DF00000EB4310D0F8003B13F4004F0ED1D0F895
:102E0000003BCA68C2F30A02097942EA81421343CD
:102E100043F0805343F40043C0F8003B002070BCF3
:102E20007047D0F81C4803F00F06B24092B222431C
:102E3000C0F81C2800EB4310D0F8002912F4004F12
:102E4000ECD1D0F80029CC68C4F30A04097944EA2B
:102E5000814444EA8353134343F0805343F40043D3
:102E6000C0F80039DAE7000030B40B784A78012A5C
:102E700024D000EB4313D3F8002B002A50DBD0F80A
:102E80003C580A7802F00F02012404FA02F225EA03
:102E90000242C0F83C28D0F81C28097801F00F0144
:102EA0008C4022EA0444C0F81C48D3F8001B234A93
:102EB0000A40C3F8002B002030BC704700EB4313DE
:102EC000D3F80029002A1EDBD0F83C580A7802F01B
:102ED0000F02012404FA02F292B225EA0202C0F8BB
:102EE0003C28D0F81C28097801F00F018C40A4B2CE
:102EF00022EA0404C0F81C48D3F80019104A0A401A
:102F0000C3F80029D7E7D3F8002942F00062C3F8DC
:102F10000029D3F8002942F08042C3F80029D3E702
:102F2000D3F8002B42F00062C3F8002BD3F8002B3B
:102F300042F08042C3F8002BA1E700BF0078F3EF16
:102F4000007833EC70B40B784C78012C28D000EB6F
:102F5000431000F530631C69E40CE4041C611C6937
:102F600024F0FF5424F4C0141C618C690CB1CC68AB
:102F70008C61CC68CC611C6944F400241C611C6920
:102F8000CD69C5F312052C431C61012A65D0D0F828
:102F9000003B43F00443C0F8003B002070BC704786
:102FA0008C696CBB00EB4314D4F8105925F0FF5525
:102FB00025F4C015C4F81059D4F8105945F400256B
:102FC000C4F81059D4F81059ED0CED04C4F8105998
:102FD000012A33D000EB4313D3F8002942F0044216
:102FE000C3F800298B69002BD7D0D0F83428097892
:102FF00001F00F040121A1400A43C0F83428CCE7B6
:1030000000EB431404F510642569ED0CED04256113
:10301000256925F0FF5525F4C01525618E69CD6819
:10302000AE4200D98D61256945F4002525612569E9
:103030008E69C6F3120635432561C9E74A691AB19C
:1030400000EB4311C1F8142900EB4310D0F800291C
:1030500042F00442C0F800299FE70A69002A96D08E
:103060005A6194E730B482B00346002201920446CC
:10307000487801280AD00A7803EB4212D2F8000BF4
:1030800000282CDB002002B030BC70470A7803EB2C
:103090004212D2F80059002D01DB0020F3E7D2F8EC
:1030A000005945F00065C2F800590A7803EB421355
:1030B000D3F8002942F08042C3F80029019B013374
:1030C0000193019A42F210739A42DCD80B7804EB18
:1030D0004313D3F80039002BF0DB0020D3E7D2F8FC
:1030E000000B40F00060C2F8000B087803EB4013BF
:1030F000D3F8002B42F08042C3F8002B019B013330
:103100000193019A42F210739A4208D80B7804EBAB
:103110004313D3F8003B002BF0DB0020B3E7012082
:10312000B1E770B49DF80C4064B903339E08B44213
:1031300008D200EB023303F5805351F8045B1D60A5
:103140000134F4E7002070BC70470000F0B583B094
:103150000B784C78012C2BD000EB431303F5306433
:103160002569ED0CED042561256925F0FF5525F451
:10317000C01525618D69002D40F0C3802569CE689A
:10318000C6F3120635432561256945F400252561FE
:10319000012A00F0CC800A79012A00F0CE80D3F811
:1031A000002B42F00442C3F8002B002003B0F0BD16
:1031B0008C6984BB00EB4314D4F8105925F0FF55FB
:1031C00025F4C015C4F81059D4F8105945F4002559
:1031D000C4F81059D4F81059ED0CED04C4F8105986
:1031E000012A4CD000EB4313D3F8004944F00444C7
:1031F000C3F800490C79012C6AD08B69002BD4D01C
:10320000D0F83428097801F00F040121A1400A43C5
:10321000C0F83428C9E700EB4314D4F81059ED0C7A
:10322000ED04C4F81059D4F8105925F0FF5525F4D1
:10323000C015C4F81059D4F810698D69CF683D44A1
:10324000013DB5FBF7F5464F07EAC5453543C4F8E0
:103250001059D4F810598E69C6F312063543C4F8D4
:10326000105904F510640D79012DB9D1256925F0A7
:10327000C0452561256945F000552561B0E74A69DB
:103280001AB100EB4314C4F814290A79012A08D0B2
:1032900000EB4313D3F8002942F00442C3F800299D
:1032A00083E7D0F8082812F4807F08D100EB43119F
:1032B000D1F8002942F00052C1F80029E8E700EBFC
:1032C0004311D1F8002942F08052C1F80029DFE70C
:1032D000D0F8084814F4807F0CD1D3F8004944F0AA
:1032E0000054C3F8004900920B8B0A780969FFF774
:1032F00018FF5AE7D3F8004944F08054C3F8004956
:10330000F1E7CE683544013DB5FBF6F5AFB206FBFB
:1033100007F6CE612669124F07EAC5453543256198
:103320002569CE69C6F312063543256130E70A697F
:10333000002A3FF430AF62612DE7D0F8082812F47C
:10334000807F06D1D3F8002B42F00052C3F8002B47
:1033500025E7D3F8002B42F08052C3F8002B1EE77C
:103360000000F81F70B483B00646950802F003020F
:103370000023AB4206D206F58054246841F8044B82
:103380000133F6E77AB100F5805003680193002518
:10339000EBB2DC00019BE34001F8013B0135013A4F
:1033A00092B2002AF4D1084603B070BC70470B7883
:1033B0004A78012A14D000EB4310D0F8002B002AE1
:1033C00006DB2BB1D0F8003B23F08043C0F8003B74
:1033D000D0F8003B43F40013C0F8003B00207047D6
:1033E00000EB4310D0F80029002A06DB2BB1D0F8FF
:1033F000003923F08043C0F80039D0F8003943F495
:103400000013C0F80039E9E70B784A78012A0ED09A
:1034100000EB4310D0F8003B23F40013C0F8003B4E
:103420000B79023BDBB2012B15D90020704700EB72
:103430004310D0F8003923F40013C0F800390B7999
:10344000023BDBB2012BF0D8D0F8003943F08053B7
:10345000C0F80039E9E7D0F8003B43F08053C0F8EA
:10346000003BE2E7D0F8003823F4FE63C0F80038F0
:10347000D0F80038090101F4FE610B43C0F80038B0
:1034800000207047D0F8003E23F00303C0F8003E50
:10349000D0F8043823F00203C0F804380020704745
:1034A000D0F8003E23F00303C0F8003ED0F8043803
:1034B00043F00203C0F80438002070474269806975
:1034C00010407047D0F8183800F50060C069184007
:1034D000000C7047D0F8183800F50060C06918403B
:1034E00080B2704700EB4111D1F8082B00F5006065
:1034F00040691040704710B4D0F81048D0F8343804
:1035000001F00F02D340DB01DBB2234300EB41109B
:1035100000F51060806818405DF8044B7047406902
:1035200000F00100704738B50546C36823F0C0437A
:10353000C360012913D019BBC36843F08043C36043
:1035400000240120FEF756F801342846FFF7E7FF74
:1035500008B1312CF5D9322C14D0002038BDC36805
:1035600043F00053C36000240120FEF743F8013408
:103570002846FFF7D4FF0128EDD0312CF4D9EAE733
:103580000120EBE70120E9E7D0F8003923F4FF63DD
:1035900023F00703C0F80039D0F8043843F48073EF
:1035A000C0F804380020704710B4046C154B9C42DE
:1035B00003D9D0F8003B002B16DB0024C0F8104BD9
:1035C000D0F8104B44F40024C0F8104BD0F8104B46
:1035D00044F01804C0F8104BD0F8104B44F0C0442D
:1035E000C0F8104B012903D000205DF8044B704750
:1035F000C0F8142BD0F8003B43F08023C0F8003B08
:10360000F2E700BF0A30544F98B108B503460020D6
:10361000C3F8B802C3F8C402C3F8D00209B1C3F8B2
:10362000B4121846012380F89C320270FEF7AEFAFD
:1036300008BD0320704710B582B00023ADF80630F6
:1036400089B10446C4F8B812CB6A23B10DF1060063
:103650009847C4F8D002D4F8D8320133C4F8D8322D
:10366000002002B010BD0320FBE708B5FEF7EFFA1B
:1036700008BD08B5D0F8B83213B11B68984708BD2B
:103680000020FCE708B5D0F8B8325B6898470346DD
:1036900008B9184608BD0323FBE738B5044600F215
:1036A000AA25284600F0D5F90123C4F89432B4F8CD
:1036B000B032C4F8983294F8AA1201F01F03012B1B
:1036C0000ED05AB23AB1022B0FD001F08001204641
:1036D000FEF7D8FA03E02946204600F08FFB38BDFC
:1036E0002946204600F0C5FBF9E72946204600F0B0
:1036F00006FCF4E7F8B50446012380F89C32002369
:10370000C0F894324360C0F8A43280F8A032D0F8F8
:10371000B832DBB15B68DBB1002198470746C8B916
:103720004023002211462046FEF799FA0126A4F80C
:1037300064614025C4F860512B4600228021204658
:10374000FEF78DFAA68425623846F8BD0027E7E724
:103750000027E5E70327E3E701740020704790F8AE
:103760009C32DBB280F89D32042380F89C3200202A
:10377000704790F89C32DBB2042B01D000207047D8
:1037800090F89D32DBB280F89C32F7E708B590F8EC
:103790009C32DBB2032B01D0002008BDD0F8B83238
:1037A000002BF9D0DB69002BF6D09847F4E708B579
:1037B000D0F8D432AE3350F823205AB190F89C326E
:1037C000DBB2032B01D0002008BD136A23B1984758
:1037D0000020F9E70320F7E70020F5E708B5D0F867
:1037E000D432AE3350F823205AB190F89C32DBB279
:1037F000032B01D0002008BD536A23B19847002055
:10380000F9E70320F7E70020F5E70020704708B547
:10381000012380F89C32D0F8B83233B15B6801796B
:103820009847034618B9184608BD0023FBE7032351
:10383000F9E7002070470020704738B504460D4670
:10384000002947D11346D0F89422032A02D00B4610
:10385000184638BDD0F85C11D0F86021914212D8DA
:1038600090F8AA3203F01F03012B17D0022B1CD0B3
:10387000284694F89C32DBB2032B1BD0204600F084
:10388000A7FC2B46E4E7891AC0F85C118A4228BFDE
:103890000A46194600F094FC2B46D9E790F8AE1280
:1038A000FFF7C7FF0028E9D1E3E790F8AE12FFF772
:1038B000C2FFF7E700F1AE0354F823301B69002B79
:1038C000DCD0C4F8D402AE3054F820301B69204656
:1038D0009847D3E701F07F01FFF7ADFF0346B0B98A
:1038E00094F89C22D2B2032AB2D100F1AE0254F86D
:1038F00022209269002AABD0C4F8D402AE3354F827
:1039000023309B692946204698470346A0E70023B9
:103910009EE738B504460D4600294CD11346D0F831
:103920009422022A08D094F8A0321BB1002384F814
:10393000A0322B46184638BDC269016A8A420ED8A9
:103940008A4218D094F89C32DBB2032B27D0802116
:103950002046FEF797F9204600F045FCE3E7521AAF
:10396000C261194600F015FC00231A46194620468C
:10397000FEF7A8F9D7E783699942E3D8D0F89822EF
:103980009342DFD20022114600F003FC0021C4F86C
:1039900098120B460A462046FEF794F9C3E7D4F87E
:1039A000B832DA68002AD2D00022C4F8D422DB6808
:1039B00020469847CBE741F08001FFF73CFF0346E4
:1039C000B0B994F89C22D2B2032AB3D100F1AE026E
:1039D00054F822205269002AACD0C4F8D402AE3385
:1039E00054F823305B692946204698470346A1E7EF
:1039F00000239FE703780A8813440B800378184458
:103A00007047428803789A4218D930B583B00D4682
:103A10000446ADF806306288BDF806309A420AD9ED
:103A20000DF10601FFF7E6FF4378052BF3D183780C
:103A3000AB42F0D100E0002003B030BD0020704761
:103A4000002302781AB10133DBB20130F9E71846DE
:103A500070470B7803704B7843708B78CA7843EAD1
:103A6000022343800B794A7943EA022383808B79CE
:103A7000CA7943EA0223C380704710B50446802107
:103A8000FEF700F900212046FEF7FCF810BD30B526
:103A900083B004460D460023ADF806304A88130A69
:103AA000013B062B00F2AB80DFE803F0041F33A9D3
:103AB000A98D9A00D0F8B4321B680DF10601007C84
:103AC0009847EA88002A00F0A380BDF80630002B52
:103AD00000F099809A4228BF1A46ADF806200146A8
:103AE000204600F049FB03B030BD037C43B9D0F859
:103AF000B8329B6A0DF10600984702234370E0E755
:103B0000D0F8B832DB6A0DF1060098470223437003
:103B1000D7E7D2B2052A52D8DFE802F003101D2AF7
:103B20003744D0F8B4325B6823B10DF10601007C54
:103B30009847C6E72946FFF7A0FFD4E7D0F8B4328C
:103B40009B6823B10DF10601007C9847B9E729462F
:103B5000FFF793FFC7E7D0F8B432DB6823B10DF16C
:103B60000601007C9847ACE72946FFF786FFBAE7D5
:103B7000D0F8B4321B6923B10DF10601007C9847DF
:103B80009FE72946FFF779FFADE7D0F8B4325B69CC
:103B900023B10DF10601007C984792E72946FFF713
:103BA0006CFFA0E7D0F8B4329B6923B10DF1060198
:103BB000007C984785E72946FFF75FFF93E7294692
:103BC000FFF75BFF8FE7037C33B9D0F8B8325B6B4C
:103BD0000DF10600984774E72946FFF74EFF82E78C
:103BE000037C43B9D0F8B8321B6B0DF1060098473F
:103BF0000723437065E72946FFF73FFF73E7294630
:103C0000FFF73BFF6FE729462046FFF736FF6AE7DD
:103C1000204600F0DDFA66E738B504468B88FBB92C
:103C2000CB88EBB94B887F2B1AD803F07F0590F82F
:103C30009C32DBB2032B0CD080F89E522946FEF753
:103C400031F8204600F0C4FA35B1022384F89C32E2
:103C500009E0FFF712FF06E0012384F89C3202E03E
:103C60002046FFF70AFF38BD70B505460E468C7832
:103C70002F4B1C70012C10D890F89C32DBB2022B19
:103C80000FD0032B26D0FFF7F8FE294B19782846D2
:103C9000FFF7F8FC0324204670BDFFF7EEFE032477
:103CA000F9E7A4B144602146FFF7E3FC044638B1CC
:103CB00031462846FFF7E1FE022385F89C32EAE709
:103CC000284600F085FA032385F89C32E3E700F0EC
:103CD0007FFAE0E7CCB141688C4225D0C9B2FFF74A
:103CE000D1FC134B197869602846FFF7C2FC0446E3
:103CF000B0B131462846FFF7C0FE29792846FFF7C4
:103D0000C1FC022385F89C32C5E7022380F89C326F
:103D100044602146FFF7B6FC284600F059FABAE79E
:103D2000284600F055FAB6E700F052FA0024B2E750
:103D3000A003002008B5CB88012B0DD190F89C3250
:103D4000DBB25AB29AB1022B09D9032B0FD101224F
:103D5000011D00F011FA01E0FFF78FFE08BD0146DA
:103D6000002341F8083F012200F006FAF6E7FFF7CA
:103D700084FEF3E708B590F89C32013B022B12D881
:103D8000CB88022B0CD10123C360D0F8A4320BB135
:103D90000323C360022200F10C0100F0EDF908BD1D
:103DA000FFF76BFEFBE7FFF768FEF8E708B54B8807
:103DB000012B04D0022B07D0FFF75FFE08BDC0F82F
:103DC000A43200F005FAF9E78B881B0A80F8A032CC
:103DD00000F0FEF9F2E708B590F89C32013B022BA7
:103DE00009D84B88012B00D008BD0023C0F8A432AD
:103DF00000F0EEF9F8E7FFF740FEF5E738B50C788C
:103E000004F06004202C06D0402C04D06CB1FFF7E5
:103E100034FE002407E0D0F8D432AE3350F823301B
:103E20009B6898470446204638BD4D78092D1DD81B
:103E3000DFE805F012191C161C08051C0F0BFFF714
:103E400026FEF0E7FFF7E8FEEDE7FFF70DFF04467B
:103E5000E9E7FFF76FFFE6E7FFF78CFF2C46E2E7A5
:103E6000FFF7A4FFDFE7FFF7B6FFDCE7FFF705FE8C
:103E7000D9E770B505460C460B7803F06003202B9C
:103E800007D0402B05D023B1FFF7F7FD00263046C1
:103E900070BD95F89C32013B022B2AD8217901296B
:103EA00005D921462846FFF7E8FD0026EFE728461A
:103EB000FFF7BFFC034680B900F1AE0255F822209F
:103EC0009268A2B1C5F8D402AE3355F823309B688E
:103ED000214628469847064600E00326E388002B43
:103EE000D5D1002ED3D1284600F072F9CFE70326B2
:103EF000F4E721462846FFF7C0FD0026C7E72DE975
:103F0000F04106460D468B88DFB20C7804F0600461
:103F1000202C08D0402C06D0FCB1FFF7AEFD0024C9
:103F20002046BDE8F08139463046FFF784FC044660
:103F3000002840F00281C6F8D40200F1AE0356F822
:103F400023309B68002BEBD0AE3456F824309B68AE
:103F50002946304698470446E2E791F80180B8F1D7
:103F6000010F30D04FFA88F2002A68D0B8F1030F61
:103F700040F0E08090F89C32DBB2022B04D0032B9F
:103F800012D0FFF77AFDCBE70FB1802F04D129467D
:103F90003046FFF772FDC3E73946FDF773FE802117
:103FA0003046FDF76FFEBBE74B8823B91FB1802F6A
:103FB00001D0CB881BB1304600F00AF9B0E7394692
:103FC000FDF760FEF7E790F89C32DBB2022B04D0DD
:103FD000032B12D0FFF751FDA2E70FB1802F04D1C0
:103FE00029463046FFF749FD9AE73946FDF74AFE74
:103FF00080213046FDF746FE92E74B88002B8FD19B
:1040000017F07F0F17D1304600F0E2F839463046FE
:10401000FFF711FC002883D1C6F8D40200F1AE02EC
:1040200056F822209268002A00F0898029463046FE
:104030009047044674E73946FDF72CFEE3E790F815
:104040009C22D2B2022A05D0032A28D0FFF715FD00
:10405000444665E70FB1802F13D113F0800F14D1C0
:1040600007F07F0707EB8707BB0003F5A871314412
:10407000043100230B600222304600F07DF84446F4
:104080004EE7FFF7FAFC44464AE707F07F0707EBE5
:104090008707BB0003F1100131440431E9E75BB24B
:1040A000002B1FDB07F00F0202EB8202910001449C
:1040B000B1F8642122B3002B27DB07F07F0202EB6B
:1040C0008202930003F5A874344404340FB1802FA6
:1040D00025D10023236002222146304600F04CF80F
:1040E00044461DE707F00F0202EB820291000144F3
:1040F0008A8C002ADFD12946FFF7BFFC44460FE730
:104100002946FFF7BAFC44460AE707F07F0202EBB4
:104110008202930003F1100434440434D6E7394694
:104120003046FDF767FD10B101232360D3E700237C
:104130002360D0E7FFF7A1FCF2E60024F0E6044696
:10414000EEE6C0B170B50D4616460446FFF778FCA2
:10415000013040003080287003236B7002232278E6
:1041600042B1EA5401345A1CD2B20021A95402339C
:10417000DBB2F4E770BD704710B513460222C0F8F9
:1041800094228361C3610A460021FDF793FD00205C
:1041900010BD08B513460A460021FDF78BFD00202F
:1041A00008BD10B513460322C0F89422C0F8583158
:1041B000C0F85C310A460021FDF784FD002010BDE7
:1041C00008B513460A460021FDF77CFD002008BD16
:1041D00008B50422C0F8942200231A461946FDF7B8
:1041E00069FD002008BD08B50522C0F8942200230F
:1041F0001A461946FDF766FD002008BD10B5D0F837
:10420000D43203F1B00250F822408CB100EB8200AE
:1042100043687BB194F80002FF280DD09B6894F8A6
:10422000012221469847FF2384F80032002010BD68
:104230000320FCE70020FAE70020F8E70A230380C8
:10424000004870474C010020F8B507460F4C82210A
:104250002046FFF7D6FB064601212046FFF7D1FB9B
:10426000054681212046FFF7CCFB0EB11023B37128
:104270001DB140232B7100236B7118B140230371D2
:104280000023437143233B800048F8BD0801002010
:10429000F8B507460F4C82212046FFF7B2FB0646D1
:1042A00001212046FFF7ADFB054681212046FFF79F
:1042B000A8FB0EB11023B3711DB140232B71002355
:1042C0006B7118B1402303710023437143233B807A
:1042D0000048F8BD08010020F8B507460F4C8221C0
:1042E0002046FFF78EFB064601212046FFF789FB9B
:1042F000054681212046FFF784FB0EB11023B371E0
:104300001DB100232B7102236B7118B100230371BF
:104310000223437143233B800048F8BD080100207D
:1043200038B5D0F8D432B03350F8235095B10446A4
:10433000FDF777FCC5F80C02D4F8D402B03004EBDA
:1043400080004368DB6805F50371D5F804029847DF
:10435000002038BD0320FCE7F8B5D0F8C862D0F8DB
:10436000D432B03350F8234084B301F00F0202EB93
:104370008205AB0003449B694BB102EBC207BD0051
:104380002E44B66CB3FBF6F506FB153393B1002350
:10439000C4F81432D0F8D432B03300EB8300436851
:1043A0001B69ABB10A4604F50471D4F808029847BA
:1043B0000020F8BD02EB82029300034400249C61BC
:1043C00023462246FDF776FC2046F2E70320F0E77D
:1043D0000020EEE7F0B583B0D0F8D43203F1B0029C
:1043E00050F8227000228DF80720ADF80420002F2D
:1043F0007CD00D460446097811F0600635D0202E99
:104400006DD1EA882AB311F0800F0ED16B7887F84E
:104410000032EA883F2A1AD8D2B287F801223946F8
:104420002046FFF7BEFE00265DE0B03300EB8303BD
:104430005B689B68394668789847EA88072A28BFEE
:10444000072239462046FFF797FE00264BE0402220
:10445000E3E703F1B00004EB800043689B680022AF
:1044600029466878984700263DE06F780B2F31D8B1
:10447000DFE807F006393030303030303030162683
:1044800090F89C32DBB2032B04D02946FFF7F5FAF3
:10449000032628E0022201A9FFF76EFE3E4622E035
:1044A00090F89C32DBB2032B04D02946FFF7E5FAE3
:1044B000032618E001220DF10701FFF75DFE12E06F
:1044C00090F89C32DBB2032B0DD02946FFF7D5FACA
:1044D000032608E02946FFF7D0FA032603E0294621
:1044E000FFF7CBFA0326304603B0F0BD0326FAE708
:1044F00038B504468121FDF7BDFB00252587012144
:104500002046FDF7B7FBA4F8785182212046FDF73D
:10451000B1FBA4F84C50A4F84E50D4F8D43203F1B7
:10452000B00254F822209AB1B03304EB83035B68E5
:104530005B689847D4F8D432B03354F82300FDF7C1
:104540007BFBD4F8D432B03344F82350C4F8BC52C7
:10455000002038BD70B504464FF40770FDF768FBC6
:10456000002849D005464FF407720021FBF790FE62
:10457000D4F8D432B03344F82350C4F8BC52237C6E
:10458000002B41D14FF40073022281212046FDF718
:1045900066FB012626874FF400730222314620462F
:1045A000FDF75DFBA4F878611023A4F84E300823D2
:1045B000032282212046FDF752FB0123A4F84C3050
:1045C0000026C5F80462D4F8D432B03304EB830378
:1045D0005B681B689847C5F81462C5F81862D5F87F
:1045E000042262B3257C1DBB4FF4007301212046D9
:1045F000FDF768FB284670BDD4F8D432B0330022F2
:1046000044F823200225F5E7402302228121204699
:10461000FDF725FB0126268740230222314620464E
:10462000FDF71DFBA4F878611023A4F84E30BEE717
:10463000402301212046FDF745FB0025DAE702254E
:10464000D8E739B1D0F8D432B03300EB8300416001
:104650000020704703207047D0F8D432B03350F8B0
:1046600023302BB1C3F80812C3F810220020704782
:1046700003207047D0F8D432B03350F823301BB148
:10468000C3F80412002070470320704708B5D0F823
:10469000D432B03350F823209AB1D2F814320BB18F
:1046A000012008BD0123C2F81432D2F81032C362CF
:1046B000D2F81032D2F808228121FDF7FBFA00204F
:1046C000EFE70320EDE710B5D0F8D432B03350F85F
:1046D000232092B1047C44B94FF40073D2F8042231
:1046E0000121FDF7EFFA204610BD4023D2F8042245
:1046F0000121FDF7E7FA0024F5E70324F3E70000C2
:10470000DFF834D00D480E490E4A002302E0D45899
:10471000C4500433C4188C42F9D30B4A0B4C002309
:1047200001E013600432A242FBD3FCF777FFFBF7F2
:104730008BFDFCF7A3FD7047000002200000002065
:10474000580100201448000858010020041E0020D1
:10475000FEE70000F8B500BFF8BC08BC9E467047F5
:0C476000F8B500BFF8BC08BC9E467047CE
:10476C00252E366C750D0A00546F6F6B2025642056
:10477C006D696C6C697365636F6E647320746F2004
:10478C006765742025642073616D706C65730D0A08
:10479C000000000043444320436F6E6669670000CD
:1047AC0043444320496E7465726661636500000082
:1047BC004D494E20574F524B53000000432E522E62
:1047CC00412E4D00232D302B20000000686C4C0036
:1047DC00656667454647000030313233343536372D
:1047EC0038394142434445460000000030313233F1
:1047FC003435363738396162636465660000000011
:04480C002902000875
:044810000102000899
:104814000400002000000000000000000000000070
:104824000000000000000000000000000000000084
:104834000000000000000000000000000000000074
:104844000000000000000000000000000000000064
:104854000000000000000000000000000000000054
:104864000000000000000000000000000000000044
:1048740000000000010000000024F4008918000872
:104884009518000845190008211900080D19000899
:104894006119000885190008120100020202004093
:1048A40083044057000201020301000004030904C9
:1048B4001A030000000000000000000000000000D7
:1048C400000000000000000000000000D1190008F2
:1048D400A9190008AD190008B5190008B119000894
:1048E40055450008F1440008D543000800000000C5
:1048F400FD4100085943000821430008000000005E
:104904000000000000000000D942000891420008A5
:10491400494200083D42000809024300020100C068
:1049240032090400000102020100052400100105FF
:104934002401000104240202052406000107058263
:104944000308001009040100020A00000007050121
:104954000240000007058102400000000A06000230
:0849640000000040010000000A
:0400000508004701A7
:00000001FF
